:100000000C9472000C9493000C9493000C94930045
:100010000C9493000C94FC0B0C94D10B0C94930057
:100020000C9493000C9493000C9493000C94930004
:100030000C9493000C9493000C9493000C949300F4
:100040000C9493000C9493000C9493000C949300E4
:100050000C9493000C9493000C9493000C949300D4
:100060000C9493000C9493000C9493000C949300C4
:100070000C9493000C9493000C9493000C949300B4
:100080000C9493000C9493000C9493000C949300A4
:100090000C9493000C9493000C9493000C94930094
:1000A0000C9493000C9493000C9493000C94930084
:1000B0000C9493000C9493000C9493000C94930074
:1000C0000C9493000C9493000C9493000C94C30A2A
:1000D0000C9493000C9493000C9493000C94930054
:1000E0000C94930011241FBECFEFD1E2DEBFCDBF31
:1000F00000E00CBF13E0A0E0B2E0E0E4F7E600E0CF
:100100000BBF02C007900D92A631B107D9F715E0D9
:10011000A6E1B3E001C01D92AA33B107E1F70E9446
:1001200086270C949E330C9400000F931F93DF934B
:10013000CF93CDB7DEB7C057D0400FB6F894DEBF2F
:100140000FBECDBFFE01E359FF4F80E090E0A0E875
:10015000BFE380839183A283B3838E0107591F4F2E
:10016000FE01E359FF4F608171818281938126E610
:1001700036E646E655E40E94D62CDC01CB01F801B8
:1001800080839183A283B383FE01E759FF4F60818F
:1001900071818281938120E030E040E85FE30E943A
:1001A000DC2E882344F4FE01E959FF4F81E090E002
:1001B0009183808364C0FE01E759FF4F60817181A4
:1001C0008281938120E03FEF4FE757E40E947C2E2D
:1001D00018160CF043C0FE01E359FF4F6081718196
:1001E0008281938120E030E040E251E40E94D62CED
:1001F000DC01CB018E0109591F4FBC01CD010E94CA
:10020000002BDC01CB01F801918380831FC0FE012C
:10021000EB59FF4F80E791E091838083FE01EB591A
:10022000FF4F808191810197F1F7FE01EB59FF4F5C
:1002300091838083DE01A959BF4FFE01E959FF4F29
:1002400080819181019711969C938E93FE01E959CB
:10025000FF4F808191810097D1F627C08E01095907
:100260001F4FFE01E759FF4F6081718182819381A9
:100270000E94002BDC01CB01F80191838083DE0119
:10028000AD59BF4FFE01E959FF4F808191818D9398
:100290009C93FE01ED59FF4F808191810197F1F709
:1002A000FE01ED59FF4F91838083A8E2B0E0E8E2C0
:1002B000F0E080818E7F8C93A8E2B0E0E8E2F0E08D
:1002C00080818D7F8C93E8E2F0E080E38083A8E278
:1002D000B0E0E8E2F0E0808184608C93FE01E15AB6
:1002E000FF4F80E090E0A0EAB0E480839183A28396
:1002F000B3838E01055A1F4FFE01E15AFF4F608103
:1003000071818281938126E636E646E655E40E94B5
:10031000D62CDC01CB01F80180839183A283B383C7
:10032000FE01E55AFF4F608171818281938120E057
:1003300030E040E85FE30E94DC2E882344F4FE01B5
:10034000E75AFF4F81E090E09183808364C0FE0113
:10035000E55AFF4F608171818281938120E03FEFF8
:100360004FE757E40E947C2E18160CF043C0FE01A4
:10037000E15AFF4F608171818281938120E030E0FA
:1003800040E251E40E94D62CDC01CB018E01075AD9
:100390001F4FBC01CD010E94002BDC01CB01F801F5
:1003A000918380831FC0FE01E95AFF4F80E791E0EF
:1003B00091838083FE01E95AFF4F808191810197EB
:1003C000F1F7FE01E95AFF4F91838083DE01A75ABE
:1003D000BF4FFE01E75AFF4F80819181019711962F
:1003E0009C938E93FE01E75AFF4F80819181009785
:1003F000D1F627C08E01075A1F4FFE01E55AFF4F65
:1004000060817181828193810E94002BDC01CB018C
:10041000F80191838083DE01AB5ABF4FFE01E75A9A
:10042000FF4F808191818D939C93FE01EB5AFF4F8A
:10043000808191810197F1F7FE01EB5AFF4F918383
:100440008083A8E2B0E0E8E2F0E080818B7F8C93CB
:10045000FE01EF5AFF4F80E090E0A0E8BFE3808309
:100460009183A283B3838E01035B1F4FFE01EF5A7A
:10047000FF4F608171818281938126E636E646E6F0
:1004800055E40E94D62CDC01CB01F80180839183D6
:10049000A283B383FE01E35BFF4F608171818281A0
:1004A000938120E030E040E85FE30E94DC2E882367
:1004B00044F4FE01E55BFF4F81E090E0918380838F
:1004C00064C0FE01E35BFF4F608171818281938193
:1004D00020E03FEF4FE757E40E947C2E18160CF007
:1004E00043C0FE01EF5AFF4F608171818281938189
:1004F00020E030E040E251E40E94D62CDC01CB0148
:100500008E01055B1F4FBC01CD010E94002BDC0159
:10051000CB01F801918380831FC0FE01E75BFF4F91
:1005200080E791E091838083FE01E75BFF4F80814C
:1005300091810197F1F7FE01E75BFF4F9183808383
:10054000DE01A55BBF4FFE01E55BFF4F808191811E
:10055000019711969C938E93FE01E55BFF4F80817E
:1005600091810097D1F627C08E01055B1F4FFE01D8
:10057000E35BFF4F60817181828193810E94002B38
:10058000DC01CB01F80191838083DE01A95BBF4FC1
:10059000FE01E55BFF4F808191818D939C93FE016D
:1005A000E95BFF4F808191810197F1F7FE01E95BE3
:1005B000FF4F91838083A8E2B0E0E8E2F0E0808121
:1005C0008E7F8C93A8E2B0E0E8E2F0E080818D7F3E
:1005D0008C93E8E2F0E080E38083A8E2B0E0E8E218
:1005E000F0E0808184608C93FE01ED5BFF4F80E042
:1005F00090E0A0EAB0E480839183A283B3838E016C
:10060000015C1F4FFE01ED5BFF4F608171818281B4
:10061000938126E636E646E655E40E94D62CDC01B8
:10062000CB01F80180839183A283B383FE01FF96FF
:10063000608171818281938120E030E040E85FE356
:100640000E94DC2E88232CF481E090E09EAF8DAFD9
:1006500046C0FE01FF96608171818281938120E016
:100660003FEF4FE757E40E947C2E181664F5FE0119
:10067000ED5BFF4F608171818281938120E030E0EA
:1006800040E251E40E94D62CDC01CB01BC01CD013B
:100690000E94002BDC01CB019EAF8DAF0FC080E725
:1006A00091E09CAF8BAF8BAD9CAD0197F1F79CAF08
:1006B0008BAF8DAD9EAD01979EAF8DAF8DAD9EADD5
:1006C000009769F716C0FE01FF96608171818281F3
:1006D00093810E94002BDC01CB019EAF8DAF8DADCD
:1006E0009EAD9AAF89AF89AD9AAD0197F1F79AAFF8
:1006F00089AFA8E2B0E0E8E2F0E080818B7F8C93E4
:1007000080E090E0A0E8BFE38DAB9EABAFABB8AFAD
:100710006DA97EA98FA998AD26E636E646E655E492
:100720000E94D62CDC01CB0189AB9AABABABBCAB46
:1007300069A97AA98BA99CA920E030E040E85FE391
:100740000E94DC2E88232CF481E090E098AB8FA7E8
:100750003FC069A97AA98BA99CA920E03FEF4FE788
:1007600057E40E947C2E18164CF56DA97EA98FA91E
:1007700098AD20E030E040E251E40E94D62CDC014C
:10078000CB01BC01CD010E94002BDC01CB0198AB59
:100790008FA70FC080E791E09EA78DA78DA59EA58E
:1007A0000197F1F79EA78DA78FA598A9019798AB00
:1007B0008FA78FA598A9009769F714C069A97AA98E
:1007C0008BA99CA90E94002BDC01CB0198AB8FA7C1
:1007D0008FA598A99CA78BA78BA59CA50197F1F73E
:1007E0009CA78BA7A8E2B0E0E8E2F0E080818E7FD2
:1007F0008C93A8E2B0E0E8E2F0E080818D7F8C93FA
:10080000E8E2F0E080E38083A8E2B0E0E8E2F0E034
:10081000808184608C9380E090E0A0EAB0E48FA3B4
:1008200098A7A9A7BAA76FA178A589A59AA526E632
:1008300036E646E655E40E94D62CDC01CB018BA3BC
:100840009CA3ADA3BEA36BA17CA18DA19EA120E022
:1008500030E040E85FE30E94DC2E88232CF481E046
:1008600090E09AA389A33FC06BA17CA18DA19EA11A
:1008700020E03FEF4FE757E40E947C2E18164CF51E
:100880006FA178A589A59AA520E030E040E251E467
:100890000E94D62CDC01CB01BC01CD010E94002BB3
:1008A000DC01CB019AA389A30FC080E791E098A354
:1008B0008F8F8F8D98A10197F1F798A38F8F89A1C2
:1008C0009AA101979AA389A389A19AA1009769F790
:1008D00014C06BA17CA18DA19EA10E94002BDC0104
:1008E000CB019AA389A389A19AA19E8F8D8F8D8D0B
:1008F0009E8D0197F1F79E8F8D8FA8E2B0E0E8E220
:10090000F0E080818B7F8C9380E090E0A0E8BFE3F3
:10091000898F9A8FAB8FBC8F698D7A8D8B8D9C8DD3
:1009200026E636E646E655E40E94D62CDC01CB01ED
:100930008D8B9E8BAF8BB88F6D897E898F89988DBB
:1009400020E030E040E85FE30E94DC2E88232CF4B6
:1009500081E090E09C8B8B8B3FC06D897E898F8975
:10096000988D20E03FEF4FE757E40E947C2E181649
:100970004CF5698D7A8D8B8D9C8D20E030E040E2C6
:1009800051E40E94D62CDC01CB01BC01CD010E94B8
:10099000002BDC01CB019C8B8B8B0FC080E791E09F
:1009A0009A8B898B89899A890197F1F79A8B898B20
:1009B0008B899C8901979C8B8B8B8B899C89009759
:1009C00069F714C06D897E898F89988D0E94002BEC
:1009D000DC01CB019C8B8B8B8B899C89988B8F87BF
:1009E0008F8598890197F1F7988B8F87A8E2B0E0FF
:1009F000E8E2F0E080818E7F8C93A8E2B0E0E8E24C
:100A0000F0E080818D7F8C93E8E2F0E080E28083EB
:100A1000A8E2B0E0E8E2F0E0808184608C9380E0BE
:100A200090E0A0EAB0E48B879C87AD87BE876B859A
:100A30007C858D859E8526E636E646E655E40E9451
:100A4000D62CDC01CB018F839887A987BA876F8169
:100A5000788589859A8520E030E040E85FE30E9450
:100A6000DC2E88232CF481E090E09E838D833FC0B0
:100A70006F81788589859A8520E03FEF4FE757E4BD
:100A80000E947C2E18164CF56B857C858D859E8585
:100A900020E030E040E251E40E94D62CDC01CB01A2
:100AA000BC01CD010E94002BDC01CB019E838D8314
:100AB0000FC080E791E09C838B838B819C810197A1
:100AC000F1F79C838B838D819E8101979E838D831B
:100AD0008D819E81009769F714C06F817885898523
:100AE0009A850E94002BDC01CB019E838D838D8132
:100AF0009E819A83898389819A810197F1F79A83EC
:100B00008983A8E2B0E0E8E2F0E080818B7F8C93FB
:100B1000C059DF4F0FB6F894DEBF0FBECDBFCF91E7
:100B2000DF911F910F910895DF93CF93CDB7DEB77B
:100B30002E970FB6F894DEBF0FBECDBF80E090E0D9
:100B4000A0E8BFE38B879C87AD87BE876B857C85DC
:100B50008D859E8526E636E646E655E40E94D62C2F
:100B6000DC01CB018F839887A987BA876F8178854D
:100B700089859A8520E030E040E85FE30E94DC2E22
:100B800088232CF481E090E09E838D833FC06F81A9
:100B9000788589859A8520E03FEF4FE757E40E94EA
:100BA0007C2E18164CF56B857C858D859E8520E006
:100BB00030E040E251E40E94D62CDC01CB01BC01C4
:100BC000CD010E94002BDC01CB019E838D830FC0E1
:100BD00080E791E09C838B838B819C810197F1F767
:100BE0009C838B838D819E8101979E838D838D81D4
:100BF0009E81009769F714C06F81788589859A85F1
:100C00000E94002BDC01CB019E838D838D819E8110
:100C10009A83898389819A810197F1F79A838983DD
:100C200088E20E94280681E00E94280686E00E9451
:100C300028068EE00E94280680E80E9428062E964C
:100C40000FB6F894DEBF0FBECDBFCF91DF910895F0
:100C5000DF93CF93CDB7DEB76E970FB6F894DEBFB4
:100C60000FBECDBF8E8F8E8D8D8F8D8D807F8D8FA2
:100C7000A8E2B0E0E8E2F0E080818F708C93A8E217
:100C8000B0E0E8E2F0E090818D8D892B8C93A8E2B2
:100C9000B0E0E8E2F0E080818E7F8C93A8E2B0E0E3
:100CA000E8E2F0E080818D7F8C93A8E2B0E0E8E29A
:100CB000F0E0808184608C9380E090E0A0EAB0E472
:100CC000898F9A8FAB8FBC8F698D7A8D8B8D9C8D20
:100CD00026E636E646E655E40E94D62CDC01CB013A
:100CE0008D8B9E8BAF8BB88F6D897E898F89988D08
:100CF00020E030E040E85FE30E94DC2E88232CF403
:100D000081E090E09C8B8B8B3FC06D897E898F89C1
:100D1000988D20E03FEF4FE757E40E947C2E181695
:100D20004CF5698D7A8D8B8D9C8D20E030E040E212
:100D300051E40E94D62CDC01CB01BC01CD010E9404
:100D4000002BDC01CB019C8B8B8B0FC080E791E0EB
:100D50009A8B898B89899A890197F1F79A8B898B6C
:100D60008B899C8901979C8B8B8B8B899C890097A5
:100D700069F714C06D897E898F89988D0E94002B38
:100D8000DC01CB019C8B8B8B8B899C89988B8F870B
:100D90008F8598890197F1F7988B8F87A8E2B0E04B
:100DA000E8E2F0E080818B7F8C938E8D8F708E8F48
:100DB0008E8D8295807F8E8FA8E2B0E0E8E2F0E031
:100DC00080818F708C93A8E2B0E0E8E2F0E090813F
:100DD0008E8D892B8C93A8E2B0E0E8E2F0E0808170
:100DE0008E7F8C93A8E2B0E0E8E2F0E080818D7F16
:100DF0008C93A8E2B0E0E8E2F0E0808184608C931C
:100E000080E090E0A0EAB0E48B879C87AD87BE8746
:100E10006B857C858D859E8526E636E646E655E41F
:100E20000E94D62CDC01CB018F839887A987BA87D3
:100E30006F81788589859A8520E030E040E85FE31E
:100E40000E94DC2E88232CF481E090E09E838D8329
:100E50003FC06F81788589859A8520E03FEF4FE715
:100E600057E40E947C2E18164CF56B857C858D8589
:100E70009E8520E030E040E251E40E94D62CDC0167
:100E8000CB01BC01CD010E94002BDC01CB019E8374
:100E90008D830FC080E791E09C838B838B819C8145
:100EA0000197F1F79C838B838D819E8101979E83AF
:100EB0008D838D819E81009769F714C06F8178853D
:100EC00089859A850E94002BDC01CB019E838D834E
:100ED0008D819E819A83898389819A810197F1F717
:100EE0009A838983A8E2B0E0E8E2F0E080818B7F1A
:100EF0008C936E960FB6F894DEBF0FBECDBFCF9128
:100F0000DF910895DF93CF93CDB7DEB76E970FB61D
:100F1000F894DEBF0FBECDBF8E8F8E8D8D8F8D8DE1
:100F2000807F8D8FA8E2B0E0E8E2F0E080818F70F2
:100F30008C93A8E2B0E0E8E2F0E090818D8D892BFF
:100F40008C93A8E2B0E0E8E2F0E0808181608C93CD
:100F5000A8E2B0E0E8E2F0E080818D7F8C93A8E227
:100F6000B0E0E8E2F0E0808184608C9380E090E083
:100F7000A0EAB0E4898F9A8FAB8FBC8F698D7A8D90
:100F80008B8D9C8D26E636E646E655E40E94D62CEF
:100F9000DC01CB018D8B9E8BAF8BB88F6D897E89E9
:100FA0008F89988D20E030E040E85FE30E94DC2EDE
:100FB00088232CF481E090E09C8B8B8B3FC06D8963
:100FC0007E898F89988D20E03FEF4FE757E40E949C
:100FD0007C2E18164CF5698D7A8D8B8D9C8D20E0BA
:100FE00030E040E251E40E94D62CDC01CB01BC0190
:100FF000CD010E94002BDC01CB019C8B8B8B0FC0A1
:1010000080E791E09A8B898B89899A890197F1F71A
:101010009A8B898B8B899C8901979C8B8B8B8B8975
:101020009C89009769F714C06D897E898F89988D96
:101030000E94002BDC01CB019C8B8B8B8B899C89C4
:10104000988B8F878F8598890197F1F7988B8F8779
:10105000A8E2B0E0E8E2F0E080818B7F8C938E8D97
:101060008F708E8F8E8D8295807F8E8FA8E2B0E0FC
:10107000E8E2F0E080818F708C93A8E2B0E0E8E2D3
:10108000F0E090818E8D892B8C93A8E2B0E0E8E2AD
:10109000F0E0808181608C93A8E2B0E0E8E2F0E0CB
:1010A00080818D7F8C93A8E2B0E0E8E2F0E080815F
:1010B00084608C9380E090E0A0EAB0E48B879C870A
:1010C000AD87BE876B857C858D859E8526E636E659
:1010D00046E655E40E94D62CDC01CB018F8398872D
:1010E000A987BA876F81788589859A8520E030E065
:1010F00040E85FE30E94DC2E88232CF481E090E03E
:101100009E838D833FC06F81788589859A8520E095
:101110003FEF4FE757E40E947C2E18164CF56B8585
:101120007C858D859E8520E030E040E251E40E9480
:10113000D62CDC01CB01BC01CD010E94002BDC01CF
:10114000CB019E838D830FC080E791E09C838B83CE
:101150008B819C810197F1F79C838B838D819E818C
:1011600001979E838D838D819E81009769F714C0BE
:101170006F81788589859A850E94002BDC01CB01DF
:101180009E838D838D819E819A83898389819A81B3
:101190000197F1F79A838983A8E2B0E0E8E2F0E0F2
:1011A00080818B7F8C936E960FB6F894DEBF0FBE56
:1011B000CDBFCF91DF910895DF93CF93CDB7DEB749
:1011C00080E80E942806CF91DF910895DF93CF93A6
:1011D0000F920F92CDB7DEB79A8389830AC0E98157
:1011E000FA8180810E94820789819A8101969A837F
:1011F0008983E981FA818081882389F70F900F9094
:10120000CF91DF910895DF93CF9300D00F92CDB7A8
:10121000DEB789836A838981282F30E03C832B8362
:101220008B819C8182309105D9F02B813C812330C8
:10123000310534F48B819C818130910561F01EC0B1
:101240002B813C812330310581F08B819C8184305E
:10125000910581F013C08A8181580E9428060EC032
:101260008A8181540E94280609C08A818D560E9475
:10127000280604C08A818D520E9428060F900F9084
:101280000F900F90CF91DF910895DF93CF93CDB75B
:10129000DEB727970FB6F894DEBF0FBECDBF8A83A7
:1012A0006B835D834C833F832E8319828A818823DD
:1012B00019F08B81882319F40E94DC0804C08A810C
:1012C0006B810E9403098E819F818530910519F001
:1012D00089818130A9F48C819D8120E137E2B901B7
:1012E0000E944033CB01C096909333038093320326
:1012F00080913203909133030E94820781E08983B9
:101300008E819F818430910519F08981813011F59A
:101310008C819D8128EE33E0B9010E944033CB01DE
:101320009093350380933403809134039091350377
:101330002AE030E0B9010E944033C0969093350511
:101340008093340580913405909135050E94820781
:1013500081E089838E819F818330910519F0898195
:10136000813011F58C819D8124E630E0B9010E9425
:101370004033CB0190933503809334038091340341
:10138000909135032AE030E0B9010E944033C096C5
:1013900090936F0380936E0380916E0390916F031F
:1013A0000E94820781E089838E819F81823091052E
:1013B00019F08981813011F58C819D812AE030E01E
:1013C000B9010E944033CB019093350380933403DD
:1013D00080913403909135032AE030E0B9010E94F6
:1013E0004033C09690933A03809339038091390338
:1013F00090913A030E94820781E089838E819F81C8
:101400008130910519F08981813091F48C819D8121
:101410002AE030E0B9010E944033C0969093330532
:101420008093320580913205909133050E948207A6
:101430008E819F81863091051CF085E40E94820791
:1014400027960FB6F894DEBF0FBECDBFCF91DF91C8
:101450000895DF93CF93CDB7DEB7A4E2B0E0E4E226
:10146000F0E0808180628C93A5E2B0E0E5E2F0E0FC
:10147000808180628C93CF91DF910895DF93CF9329
:10148000CDB7DEB7A4E2B0E0E4E2F0E080818064B2
:101490008C93A5E2B0E0E5E2F0E0808180648C937B
:1014A000CF91DF910895DF93CF93CDB7DEB7A7E259
:1014B000B0E0E7E2F0E0808188608C93A8E2B0E0E1
:1014C000E8E2F0E08081877F8C93CF91DF910895EF
:1014D000DF93CF93CDB7DEB7ADE2B0E0EDE2F0E061
:1014E00080818F778C93AEE2B0E0EEE2F0E0808115
:1014F00080688C93CF91DF910895DF93CF930F9203
:10150000CDB7DEB71982E6E2F0E080818983898178
:1015100088608983E8E2F0E0898180830F90CF9131
:10152000DF910895DF93CF930F92CDB7DEB7198285
:10153000E6E2F0E0808189838981877F8983E8E220
:10154000F0E0898180830F90CF91DF910895DF9340
:10155000CF93CDB7DEB7E1EDF0E01082E0EDF0E043
:101560001082E2EDF0E086E08083E4EDF0E08FE5CC
:101570008083E5EDF0E01082E1EDF0E088E9808322
:10158000CF91DF9108951F920F920FB60F920090A6
:101590005B000F9211242F938F939F93EF93FF93F0
:1015A000DF93CF93CDB7DEB7E6EDF0E08081809397
:1015B0003B03E6EDF0E080913B03808380913B03A9
:1015C000882379F0809122039091230320913B039B
:1015D000FC01E45CFC4F20830196909323038093ED
:1015E0002203CF91DF91FF91EF919F918F912F91E6
:1015F0000F9000925B000F900FBE0F901F901895F8
:10160000DF93CF93CDB7DEB7A1E2B0E0E1E2F0E047
:1016100080818F608C93A2E2B0E0E2E2F0E0808112
:10162000807F8C93AAE0B1E0EAE0F1E080818861FC
:101630008C93ABE0B1E0EBE0F1E0808188618C93CA
:10164000CF91DF910895DF93CF93CDB7DEB7ADE2B1
:10165000B0E0EDE2F0E080818F7E8C93AEE2B0E00E
:10166000EEE2F0E0808180618C93CF91DF9108956C
:10167000DF93CF93CDB7DEB7ADE2B0E0EDE2F0E0BF
:1016800080818F7D8C93AEE2B0E0EEE2F0E080816D
:1016900080628C93CF91DF910895DF93CF93CDB784
:1016A000DEB70E94000B0E94230B0E94380B0E94A1
:1016B000A00C0E94B50C0E94530A0E94680A0E9466
:1016C000290A0E943E0ACF91DF910895DF93CF93BC
:1016D000CDB7DEB7E1E8F0E01082E5E8F0E08CEFAE
:1016E0008083E4E8F0E081E08083E9E8F0E083E0F3
:1016F0008083E8E8F0E08FEF8083EBE8F0E083E0C0
:101700008083EAE8F0E08FEF8083EDE8F0E083E0AB
:101710008083ECE8F0E08FEF8083E7E8F0E083E09F
:101720008083E6E8F0E08FEF8083E0E8F0E08BEA8A
:101730008083E2E8F0E01082E1E8F0E08CE0808372
:10174000CF91DF910895DF93CF93CDB7DEB7F894B3
:10175000AAE6B0E0EAE6F0E0808182608C93ADE337
:10176000B0E0EDE3F0E0808180618C937894CF91DC
:10177000DF910895DF93CF93CDB7DEB7F894AAE653
:10178000B0E0EAE6F0E0808188608C93ADE3B0E001
:10179000EDE3F0E0808180628C937894CF91DF91CB
:1017A00008951F920F920FB60F9211248F939F935B
:1017B000AF93BF93DF93CF93CDB7DEB780911E0376
:1017C00090911F03A0912003B09121030196A11DC8
:1017D000B11D80931E0390931F03A0932003B09329
:1017E0002103CF91DF91BF91AF919F918F910F9086
:1017F0000FBE0F901F9018951F920F920FB60F9269
:1018000011248F939F93AF93BF93DF93CF93CDB763
:10181000DEB780911A0390911B03A0911C03B09135
:101820001D030196A11DB11D80931A0390931B0304
:10183000A0931C03B0931D03CF91DF91BF91AF9193
:101840009F918F910F900FBE0F901F901895DF936F
:10185000CF930F920F92CDB7DEB78A8319828A8118
:101860008F708A83E2E2F0E0808189838981807FC2
:10187000898399818A81892B8983E2E2F0E08981D9
:1018800080830F900F90CF91DF910895DF93CF93D6
:10189000CDB7DEB786E00E94270CCF91DF91089587
:1018A000DF93CF93CDB7DEB789E00E94270CCF91AD
:1018B000DF910895DF93CF93CDB7DEB785E00E9427
:1018C000270CCF91DF910895DF93CF93CDB7DEB78B
:1018D0008AE00E94270CCF91DF910895DF93CF9388
:1018E000CDB7DEB784E00E94270CCF91DF91089539
:1018F000DF93CF93CDB7DEB782E00E94270CCF9164
:10190000DF910895DF93CF93CDB7DEB781E00E94DA
:10191000270CCF91DF910895DF93CF93CDB7DEB73A
:1019200088E00E94270CCF91DF910895DF93CF9339
:10193000CDB7DEB780E00E94270CCF91DF910895EC
:10194000DF93CF93CDB7DEB7A7E2B0E0E7E2F0E0F8
:101950008081876F8C93A8E2B0E0E8E2F0E08081BC
:1019600080788C93CF91DF910895DF93CF93CDB79B
:10197000DEB7E0E3F0E01082E1E3F0E01082E7E0C0
:10198000F1E01082E8E0F1E01082CF91DF9108955C
:10199000DF93CF93CDB7DEB7E1E2F1E01082E5E26D
:1019A000F1E08FEF8083E4E2F1E081E08083E9E21F
:1019B000F1E01082E8E2F1E08FEF8083EBE2F1E00A
:1019C0001082EAE2F1E08FEF8083EDE2F1E0108235
:1019D000ECE2F1E08FEF8083E0E2F1E089EA8083DE
:1019E000E1E2F1E08BE08083CF91DF910895DF9316
:1019F000CF93CDB7DEB7EAE7F0E01082EBE7F0E097
:101A00001082ECE7F0E080E28083E0E5F0E080E83F
:101A10008083EAE7F0E086E88083CF91DF91089544
:101A2000DF93CF930F920F92CDB7DEB78A838A816F
:101A3000883020F0EBE7F0E088E080838A818770CF
:101A40008A83ECE7F0E08A8180628083AAE7B0E0D5
:101A5000EAE7F0E0808180648C93EAE7F0E080813F
:101A6000882F90E0807190700097B9F3E9E7F0E07B
:101A700080818983AAE7B0E0EAE7F0E080818061B5
:101A80008C93EBE7F0E0108289810F900F90CF915B
:101A9000DF910895DF93CF9300D0CDB7DEB7898370
:101AA0006A834B838B810E94100D80933603809153
:101AB0003603282F30E089816A81A90123E030E0D4
:101AC0000E9445090F900F900F90CF91DF910895DC
:101AD000DF93CF93CDB7DEB72C970FB6F894DEBF68
:101AE0000FBECDBF9A87898780E090E0A0E0B0E08C
:101AF0008D839E83AF83B88719821A821B821C82D2
:101B000089859A85CC01A0E0B0E0BC01CD010E949E
:101B1000602FDC01CB01BC01CD0128E431EE42E8AD
:101B200050E40E94D02DDC01CB018D839E83AF83D6
:101B3000B8876D817E818F8198850E94002BDC01A2
:101B4000CB01CC01A0E0B0E089839A83AB83BC8356
:101B500010921E0310921F03109220031092210373
:101B600010921A0310921B0310921C0310921D0373
:101B700020911E0330911F034091200350912103B7
:101B80001C8689819A81AB81BC81281739074A0755
:101B90005B0710F081E08C8720911A0330911B03C2
:101BA00040911C0350911D031B8689819A81AB8152
:101BB000BC81281739074A075B0710F091E09B8723
:101BC0008C859B85892B882399F20E94960C2C96F4
:101BD0000FB6F894DEBF0FBECDBFCF91DF91089551
:101BE000DF93CF93CDB7DEB72A970FB6F894DEBF59
:101BF0000FBECDBF9A87898780E090E0A0E0B0E07B
:101C00008D839E83AF83B88719821A821B821C82C0
:101C100089859A85CC01A0E0B0E0BC01CD010E948D
:101C2000602FDC01CB01BC01CD0125EE30ED4AEA8D
:101C300050E40E94D02DDC01CB018D839E83AF83C5
:101C4000B8876D817E818F8198850E94002BDC0191
:101C5000CB0189839A83AB83BC8310921E031092BD
:101C60001F03109220031092210320911E03309134
:101C70001F03409120035091210389819A81AB81F8
:101C8000BC8182179307A407B50778F70E94960CCA
:101C90002A960FB6F894DEBF0FBECDBFCF91DF916D
:101CA0000895DF93CF930F920F92CDB7DEB789835C
:101CB0006A83E8E2F1E089818083EAE2F1E08A81E7
:101CC00080830F900F90CF91DF910895DF93CF9392
:101CD0000F920F92CDB7DEB79A8389830E94460C8C
:101CE00086E966E90E94510E89819A810E94F00D71
:101CF0000F900F90CF91DF910895DF93CF930F92C4
:101D00000F92CDB7DEB79A8389830E94500C86E983
:101D100066E90E94510E89819A810E94F00D0F9010
:101D20000F90CF91DF910895DF93CF930F920F9291
:101D3000CDB7DEB79A8389830E945A0C89819A8134
:101D40000E94680D0F900F90CF91DF910895DF935F
:101D5000CF930F920F92CDB7DEB79A8389830E94FB
:101D6000640C89819A810E94680D0F900F90CF9129
:101D7000DF910895DF93CF930F920F92CDB7DEB727
:101D80009A8389830E946E0C89819A81880F991F9A
:101D90009A83898389819A810E94680D0F900F90A0
:101DA000CF91DF910895DF93CF930F920F92CDB72C
:101DB000DEB79A8389830E94780C89819A81880F83
:101DC000991F9A83898389819A810E94680D0F9057
:101DD0000F90CF91DF910895DF93CF930F920F92E1
:101DE000CDB7DEB79A8389830E94820C89819A815C
:101DF000880F991F9A83898389819A810E94680D2F
:101E00000F900F90CF91DF910895DF93CF930F92B2
:101E10000F92CDB7DEB79A8389830E948C0C89819B
:101E20009A81880F991F9A83898389819A810E9458
:101E3000680D0F900F90CF91DF910895DF93CF93AE
:101E4000CDB7DEB7F8940E944D0B0E94A30B0E9401
:101E5000BA0B0E94F70C0E94C80C0E94A70A0E94AD
:101E60004D0B0E94660B7894CF91DF9108950F93EC
:101E70001F93DF93CF9300D00F920F92CDB7DEB7B1
:101E80008D8380E090E0A0E0B0E089839A83AB830B
:101E9000BC838D81882F90E0A0E0B0E0BC01CD0133
:101EA0000E94602FDC01CB01BC01CD012DEC3CEC8C
:101EB0004CEC5EE30E94D02DDC01CB01BC01CD01D6
:101EC00020E030E04CE052E40E94A92CDC01CB0180
:101ED00089839A83AB83BC83E9E8F0E0108208E849
:101EE00010E069817A818B819C810E94002BDC014A
:101EF000CB01F80180830F900F900F900F900F90FF
:101F0000CF91DF911F910F9108950F931F93DF934E
:101F1000CF9300D00F920F92CDB7DEB78D8380E0C4
:101F200090E0A0E0B0E089839A83AB83BC838D818D
:101F3000882F90E0A0E0B0E0BC01CD010E94602FAE
:101F4000DC01CB01BC01CD0126E636E646E65FE3C7
:101F50000E94D02DDC01CB01BC01CD0120E030E09E
:101F600040E252E40E94A92CDC01CB0189839A83D0
:101F7000AB83BC83EBE8F0E010820AE810E06981F3
:101F80007A818B819C810E94002BDC01CB01F801BE
:101F900080830F900F900F900F900F90CF91DF9153
:101FA0001F910F910895DF93CF93CDB7DEB7E9E886
:101FB000F0E083E08083E8E8F0E08FEF8083CF916A
:101FC000DF910895DF93CF93CDB7DEB7EBE8F0E074
:101FD00083E08083EAE8F0E08FEF8083CF91DF91A8
:101FE0000895DF93CF93CDB7DEB7A8970FB6F894D7
:101FF000DEBF0FBECDBF9C8F8B8F7E8F6D8F58A3A2
:102000004F8F8B8D9C8D25E030E0B9010E945433B9
:102010009A8F898F8B8D9C8D25E030E0B9010E94CD
:102020005433CB01988F8F8B84E090E00E94CE31A7
:102030009A838983898D9A8D01969E8B8D8B8D894C
:102040009E899A8B898B898D9A8D9E878D878F89A2
:10205000988D9C8B8B8B8F89988D0196988B8F8711
:102060008F8598899C878B872D8D3E8D898D9A8D44
:10207000A901481B590BCA019E838D838D819E81C6
:1020800099233CF48D819E81909581959F4F9E83ED
:102090008D832D8D3E8D8D899E89A901481B590BFD
:1020A000CA019C838B838B819C8199233CF48B8117
:1020B0009C81909581959F4F9C838B832D813E8140
:1020C0008B819C81821793070CF03FC08F8D98A164
:1020D0002B893C89821B930B98A78FA38FA198A56E
:1020E00099233CF42FA138A5309521953F4F38A76F
:1020F0002FA38F8D98A12F853889821B930B9EA3C8
:102100008DA34DA15EA155233CF48DA19EA1909578
:1021100081959F4F9EA38DA32FA138A54DA15EA1B0
:10212000421753074CF48D899E899A8789878F853A
:10213000988998878F8347C08D899E899A878987D8
:102140008B899C8998878F833EC08F8D98A12F891A
:10215000388D821B930B9CA38BA38BA19CA19923ED
:102160003CF42BA13CA1309521953F4F3CA32BA3E0
:102170008F8D98A12B853C85821B930B9AA389A3F5
:1021800049A15AA155233CF489A19AA19095819522
:102190009F4F9AA389A32BA13CA149A15AA1421701
:1021A00053074CF4898D9A8D9A8789878B859C85F6
:1021B00098878F8308C0898D9A8D9A8789878F89A0
:1021C000988D98878F83E981FA8189859A85918393
:1021D000808389819A81FC0132968F8198859183D1
:1021E000808389819A81A8960FB6F894DEBF0FBECE
:1021F000CDBFCF91DF910895DF93CF930F920F92D0
:10220000CDB7DEB79A83898389819A810E94B01CF9
:102210000F900F90CF91DF910895DF93CF93CDB7BB
:10222000DEB72E970FB6F894DEBF0FBECDBF0E946B
:102230001E0F81EB90E00E94A70E82E00E94100D1D
:102240008093180380911803803228F483E090E093
:102250000E94A70EF2CF0E94960C80E090E0A8ECBE
:10226000B2E48B879C87AD87BE876B857C858D8527
:102270009E8526E636E646E655E40E94D62CDC012D
:10228000CB018F839887A987BA876F8178858985E5
:102290009A8520E030E040E85FE30E94DC2E88234E
:1022A0002CF481E090E09E838D833FC06F81788520
:1022B00089859A8520E03FEF4FE757E40E947C2E06
:1022C00018164CF56B857C858D859E8520E030E069
:1022D00040E251E40E94D62CDC01CB01BC01CD01CF
:1022E0000E94002BDC01CB019E838D830FC080E711
:1022F00091E09C838B838B819C810197F1F79C8378
:102300008B838D819E8101979E838D838D819E819C
:10231000009769F714C06F81788589859A850E9436
:10232000002BDC01CB019E838D838D819E819A835E
:10233000898389819A810197F1F79A8389838091B2
:10234000020290910302029690930302809302028C
:1023500080910202909103028830910531F08091C2
:10236000020290910302009731F484E090E0909390
:1023700003028093020280910202909103022E9642
:102380000FB6F894DEBF0FBECDBFCF91DF91089599
:10239000DF93CF93CDB7DEB76E970FB6F894DEBF5D
:1023A0000FBECDBF9E8F8D8F0E941E0F83E290E0E7
:1023B0000E94660E0E94960C80E090E0A8ECB2E4C9
:1023C000898F9A8FAB8FBC8F698D7A8D8B8D9C8D09
:1023D00026E636E646E655E40E94D62CDC01CB0123
:1023E0008D8B9E8BAF8BB88F6D897E898F89988DF1
:1023F00020E030E040E85FE30E94DC2E88232CF4EC
:1024000081E090E09C8B8B8B3FC06D897E898F89AA
:10241000988D20E03FEF4FE757E40E947C2E18167E
:102420004CF5698D7A8D8B8D9C8D20E030E040E2FB
:1024300051E40E94D62CDC01CB01BC01CD010E94ED
:10244000002BDC01CB019C8B8B8B0FC080E791E0D4
:102450009A8B898B89899A890197F1F79A8B898B55
:102460008B899C8901979C8B8B8B8B899C8900978E
:1024700069F714C06D897E898F89988D0E94002B21
:10248000DC01CB019C8B8B8B8B899C89988B8F87F4
:102490008F8598890197F1F7988B8F878D8D9E8D09
:1024A00081309105E1F486E490E00E94A70E82E07D
:1024B0000E94100D8093180380911803803528F432
:1024C00083E090E00E94A70EF2CF809102029091EB
:1024D0000302019690930302809302021BC086E4DC
:1024E00090E00E94940E82E00E94100D80931803E9
:1024F00080911803803528F483E090E00E94940EC8
:10250000F2CF80910202909103020197909303020F
:10251000809302020E94960C80E090E0A8ECB2E466
:102520008B879C87AD87BE876B857C858D859E85D7
:1025300026E636E646E655E40E94D62CDC01CB01C1
:102540008F839887A987BA876F81788589859A85CF
:1025500020E030E040E85FE30E94DC2E88232CF48A
:1025600081E090E09E838D833FC06F81788589856F
:102570009A8520E03FEF4FE757E40E947C2E181623
:102580004CF56B857C858D859E8520E030E040E2B2
:1025900051E40E94D62CDC01CB01BC01CD010E948C
:1025A000002BDC01CB019E838D830FC080E791E07F
:1025B0009C838B838B819C810197F1F79C838B8318
:1025C0008D819E8101979E838D838D819E81009751
:1025D00069F714C06F81788589859A850E94002BE0
:1025E000DC01CB019E838D838D819E819A838983BB
:1025F00089819A810197F1F79A83898380910202F8
:10260000909103028830910531F0809102029091FF
:102610000302009731F484E090E0909303028093EA
:10262000020280910202909103026E960FB6F89416
:10263000DEBF0FBECDBFCF91DF910895DF93CF9363
:102640000F920F92CDB7DEB79A83898389819A81E1
:10265000837090700097B9F410922B0310922A03A4
:1026600081E090E090930102809300021092270392
:1026700010922603809126039091270390932903BB
:10268000809328036EC089819A8124E030E0B901EB
:102690000E94543382309105D9F41092290310928C
:1026A000280380912803909129039093010280933D
:1026B0000002809100029091010290932B0380937D
:1026C0002A0381E090E0909327038093260349C07A
:1026D00089819A8124E030E0B9010E94543381302D
:1026E0009105D9F481E090E0909329038093280329
:1026F00010922B0310922A0380912A0390912B03AE
:1027000090932703809326038091260390912703BB
:10271000909301028093000224C089819A8124E071
:1027200030E0B9010E94543383309105D1F481E047
:1027300090E090932B0380932A0310922903109228
:102740002803809128039091290390932703809375
:102750002603809126039091270390930102809392
:1027600000020F900F90CF91DF910895DF93CF93E8
:10277000CDB7DEB728970FB6F894DEBF0FBECDBF3A
:102780009A8389837C836B835E834D8338872F8311
:10279000809126039091270381309105C1F48091A7
:1027A00028039091290390932D0380932C0380910B
:1027B0002A0390912B0390932903809328038091FF
:1027C0002C0390912D0390932B0380932A0329814E
:1027D0003A818D819E812817390709F085C02F81A4
:1027E00038858B819C8182179307DCF580912803C3
:1027F000909129038130910539F080912A039091BD
:102800002B038130910589F480912A0390912B0349
:102810000E94C811909303028093020280910202E9
:10282000909103020E941E1313C080912603909181
:1028300027038130910561F40E940D1190930302EA
:102840008093020280910202909103020E941E1363
:102850008F8198852B813C81821B930B0E94FC10F9
:10286000D8C02F8138858B819C81281739070CF0BF
:10287000D0C080912803909129038130910539F0CF
:1028800080912A0390912B038130910589F48091E6
:102890002803909129030E94C8119093030280930A
:1028A000020280910202909103020E941E1313C043
:1028B00080910002909101028130910561F40E94A3
:1028C0000D11909303028093020280910202909175
:1028D00003020E941E138B819C812F813885821BED
:1028E000930B0E94FC1095C02D813E8189819A81B5
:1028F000821793070CF047C0809128039091290319
:102900000097B9F480912A0390912B03009789F4E2
:1029100080910002909101020E94C81190930302DD
:102920008093020280910202909103020E941E1382
:1029300013C080912A0390912B038130910561F49B
:102940000E940D1190930302809302028091020273
:10295000909103020E941E132D813E8189819A81EC
:10296000A901481B590BCA010E94FC108D819E8150
:102970002B813C814D815E81EF81F885B9019F01FA
:102980000E94B61346C080912803909129030097B6
:10299000B9F480912A0390912B03009789F48091D8
:1029A0002603909127030E94C811909303028093FD
:1029B000020280910202909103020E941E1313C032
:1029C00080912803909129038130910561F40E9440
:1029D0000D11909303028093020280910202909164
:1029E00003020E941E1329813A818D819E81A901D3
:1029F000481B590BCA010E94FC108D819E812B81BE
:102A00003C814D815E81EF81F885B9019F010E9473
:102A1000B61328960FB6F894DEBF0FBECDBFCF9188
:102A2000DF910895DF93CF93CDB7DEB72C970FB624
:102A3000F894DEBF0FBECDBF98878F837A876987F2
:102A40005C874B878F81988525E030E0B9010E9433
:102A500054339E838D838F81988525E030E0B901C2
:102A60000E945433CB019C838B831A82198229855F
:102A70003A858D819E812817390709F07BC02B8507
:102A80003C858B819C8128173907D1F581E090E046
:102A90009A8389838091000290910102813091058F
:102AA00039F480910002909101020E94A31ADCC0C7
:102AB00080912803909129038130910539F4809108
:102AC0002A0390912B030E94A31ACEC080912A035F
:102AD00090912B030E94C8119093030280930202ED
:102AE00080910202909103020E941E138F819885AB
:102AF00029853A854B855C85B9010E941215B4C0C1
:102B000084E090E09A838983809126039091270343
:102B10008130910539F480910002909101020E9468
:102B2000A31AA2C0809128039091290381309105B6
:102B300039F480912803909129030E94A31A94C02C
:102B400080912803909129030E94C8119093030259
:102B50008093020280910202909103020E941E1350
:102B60008F81988529853A854B855C85B9010E94BE
:102B700012157AC02B853C858B819C8128173907DB
:102B8000D1F582E090E09A83898380912A03909125
:102B90002B038130910539F480912A0390912B0306
:102BA0000E94A31A61C080910002909101028130BD
:102BB000910539F480912603909127030E94A31A6E
:102BC00053C080912603909127030E94C8119093CF
:102BD00003028093020280910202909103020E94FC
:102BE0001E138F81988529853A854B855C85B901AF
:102BF0000E94121539C083E090E09A838983809106
:102C00002603909127038130910539F480912603A2
:102C1000909127030E94A31A27C080912A039091C4
:102C20002B038130910539F4809128039091290379
:102C30000E94A31A19C080912603909127030E9435
:102C4000C811909303028093020280910202909136
:102C500003020E941E138F81988529853A854B8532
:102C60005C85B9010E9412152C960FB6F894DEBF50
:102C70000FBECDBFCF91DF910895DF93CF93CDB736
:102C8000DEB76E970FB6F894DEBF0FBECDBF9E8F36
:102C90008D8F0E941E0F8CE890E00E94660E0E94AD
:102CA000960C80E090E0A8ECB2E4898F9A8FAB8F0D
:102CB000BC8F698D7A8D8B8D9C8D26E636E646E637
:102CC00055E40E94D62CDC01CB018D8B9E8BAF8B03
:102CD000B88F6D897E898F89988D20E030E040E83B
:102CE0005FE30E94DC2E88232CF481E090E09C8B33
:102CF0008B8B3FC06D897E898F89988D20E03FEF57
:102D00004FE757E40E947C2E18164CF5698D7A8D9A
:102D10008B8D9C8D20E030E040E251E40E94D62C67
:102D2000DC01CB01BC01CD010E94002BDC01CB01F9
:102D30009C8B8B8B0FC080E791E09A8B898B898964
:102D40009A890197F1F79A8B898B8B899C890197D6
:102D50009C8B8B8B8B899C89009769F714C06D893C
:102D60007E898F89988D0E94002BDC01CB019C8B82
:102D70008B8B8B899C89988B8F878F8598890197FE
:102D8000F1F7988B8F878D8D9E8D81309105E1F4C1
:102D900081E490E00E94050F82E00E94100D809374
:102DA0001803809118038A3028F483E090E00E9491
:102DB000050FF2CF80910202909103020196909349
:102DC0000302809302021BC081E490E00E94EC0E9B
:102DD00082E00E94100D80931803809118038A30BE
:102DE00028F483E090E00E94EC0EF2CF8091020282
:102DF00090910302019790930302809302020E9434
:102E0000960C80E090E0A8ECB2E48B879C87AD87BD
:102E1000BE876B857C858D859E8526E636E646E6F3
:102E200055E40E94D62CDC01CB018F839887A987BB
:102E3000BA876F81788589859A8520E030E040E8FF
:102E40005FE30E94DC2E88232CF481E090E09E83D7
:102E50008D833FC06F81788589859A8520E03FEF1B
:102E60004FE757E40E947C2E18164CF56B857C8545
:102E70008D859E8520E030E040E251E40E94D62C12
:102E8000DC01CB01BC01CD010E94002BDC01CB0198
:102E90009E838D830FC080E791E09C838B838B8121
:102EA0009C810197F1F79C838B838D819E81019793
:102EB0009E838D838D819E81009769F714C06F81F9
:102EC000788589859A850E94002BDC01CB019E8341
:102ED0008D838D819E819A83898389819A810197CF
:102EE000F1F79A83898380910202909103028830DE
:102EF000910531F08091020290910302009731F424
:102F000084E090E090930302809302028091020299
:102F1000909103026E960FB6F894DEBF0FBECDBF40
:102F2000CF91DF910895DF93CF93CDB7DEB7EA97C6
:102F30000FB6F894DEBF0FBECDBF9AAF89AFE9AD33
:102F4000FAAD8081813409F03FC1809126039091D0
:102F500027038130910541F0809100029091010298
:102F60008130910509F02DC18091260390912703AE
:102F70000E943D1690930302809302028091020208
:102F8000909103020E941E1389AD9AADFC01319607
:102F90008081863309F083C08FE090E00E94050FA6
:102FA00082E390E00E94660E0E94881D83E290E01A
:102FB0000E947D0E0E94960C80E090E0A8ECB2E4A6
:102FC0008DAB9EABAFABB8AF6DA97EA98FA998AD05
:102FD00026E636E646E655E40E94D62CDC01CB0117
:102FE00089AB9AABABABBCAB69A97AA98BA99CA9FD
:102FF00020E030E040E85FE30E94DC2E88232CF4E0
:1030000081E090E098AB8FA73FC069A97AA98BA90E
:103010009CA920E03FEF4FE757E40E947C2E181652
:103020004CF56DA97EA98FA998AD20E030E040E273
:1030300051E40E94D62CDC01CB01BC01CD010E94E1
:10304000002BDC01CB0198AB8FA70FC080E791E08C
:103050009EA78DA78DA59EA50197F1F79EA78DA789
:103060008FA598A9019798AB8FA78FA598A90097CE
:1030700069F760C269A97AA98BA99CA90E94002B53
:10308000DC01CB0198AB8FA78FA598A99CA78BA734
:103090008BA59CA50197F1F79CA78BA74BC289AD87
:1030A0009AADFC0131968081813309F083C08FE0B5
:1030B00090E00E94EC0E82E390E00E94660E0E9477
:1030C000881D83E290E00E947D0E0E94960C80E0B5
:1030D00090E0A8ECB2E48FA398A7A9A7BAA76FA124
:1030E00078A589A59AA526E636E646E655E40E9427
:1030F000D62CDC01CB018BA39CA3ADA3BEA36BA1FB
:103100007CA18DA19EA120E030E040E85FE30E9419
:10311000DC2E88232CF481E090E09AA389A33FC0A1
:103120006BA17CA18DA19EA120E03FEF4FE757E46A
:103130000E947C2E18164CF56FA178A589A59AA53A
:1031400020E030E040E251E40E94D62CDC01CB01CB
:10315000BC01CD010E94002BDC01CB019AA389A305
:103160000FC080E791E098A38F8F8F8D98A1019772
:10317000F1F798A38F8F89A19AA101979AA389A3A8
:1031800089A19AA1009769F7D5C16BA17CA18DA1F6
:103190009EA10E94002BDC01CB019AA389A389A1E7
:1031A0009AA19E8F8D8F8D8D9E8D0197F1F79E8FA9
:1031B0008D8FC0C189E190E00E94660E0E94881D3B
:1031C000B9C10E94881DB6C1E9ADFAAD80818634CF
:1031D00009F03FC180910002909101028130910578
:1031E00041F080912603909127038130910509F0E9
:1031F0002DC180910002909101020E943D16909392
:1032000003028093020280910202909103020E94C5
:103210001E1389AD9AADFC0131968081863309F089
:1032200083C08FE090E00E94EC0E82E390E00E9469
:10323000660E0E94881D83E290E00E947D0E0E942F
:10324000960C80E090E0A8ECB2E4898F9A8FAB8F67
:10325000BC8F698D7A8D8B8D9C8D26E636E646E691
:1032600055E40E94D62CDC01CB018D8B9E8BAF8B5D
:10327000B88F6D897E898F89988D20E030E040E895
:103280005FE30E94DC2E88232CF481E090E09C8B8D
:103290008B8B3FC06D897E898F89988D20E03FEFB1
:1032A0004FE757E40E947C2E18164CF5698D7A8DF5
:1032B0008B8D9C8D20E030E040E251E40E94D62CC2
:1032C000DC01CB01BC01CD010E94002BDC01CB0154
:1032D0009C8B8B8B0FC080E791E09A8B898B8989BF
:1032E0009A890197F1F79A8B898B8B899C89019731
:1032F0009C8B8B8B8B899C89009769F71BC16D898F
:103300007E898F89988D0E94002BDC01CB019C8BDC
:103310008B8B8B899C89988B8F878F859889019758
:10332000F1F7988B8F8706C189AD9AADFC01319674
:103330008081813309F083C08FE090E00E94050F07
:1033400082E390E00E94660E0E94881D83E290E076
:103350000E947D0E0E94960C80E090E0A8ECB2E402
:103360008B879C87AD87BE876B857C858D859E8589
:1033700026E636E646E655E40E94D62CDC01CB0173
:103380008F839887A987BA876F81788589859A8581
:1033900020E030E040E85FE30E94DC2E88232CF43C
:1033A00081E090E09E838D833FC06F817885898521
:1033B0009A8520E03FEF4FE757E40E947C2E1816D5
:1033C0004CF56B857C858D859E8520E030E040E264
:1033D00051E40E94D62CDC01CB01BC01CD010E943E
:1033E000002BDC01CB019E838D830FC080E791E031
:1033F0009C838B838B819C810197F1F79C838B83CA
:103400008D819E8101979E838D838D819E81009702
:1034100069F790C06F81788589859A850E94002B15
:10342000DC01CB019E838D838D819E819A8389836C
:1034300089819A810197F1F79A8389837BC089E119
:1034400090E00E94660E0E94881D74C00E94881D34
:1034500071C089AD9AADFC0131968081813391F5BF
:10346000E9ADFAAD8081813469F1E9ADFAAD8081D1
:10347000863441F180912803909129038130910590
:1034800039F080912A0390912B0381309105B9F492
:1034900080912803909129030E943D169093030286
:1034A0008093020280910202909103020E941E13F7
:1034B00089E190E00E94660E0E94881D3BC00E9438
:1034C000881D38C089AD9AADFC0131968081863364
:1034D00089F5E9ADFAAD8081813461F1E9ADFAADEC
:1034E0008081863439F180912A0390912B038130B9
:1034F000910539F08091280390912903813091053D
:10350000B9F480912A0390912B030E943D16909369
:1035100003028093020280910202909103020E94B2
:103520001E1389E190E00E94660E0E94881D02C071
:103530000E94881DEA960FB6F894DEBF0FBECDBF7D
:10354000CF91DF910895DF93CF93CDB7DEB7EA97A0
:103550000FB6F894DEBF0FBECDBF9AAF89AF0E9401
:103560001E0F89AD9AAD8130910529F488E290E073
:103570000E94A70E04C088E290E00E94940E0E9470
:10358000960C80E090E0A8ECB2E48DAB9EABAFABC4
:10359000B8AF6DA97EA98FA998AD26E636E646E6B6
:1035A00055E40E94D62CDC01CB0189AB9AABABABC6
:1035B000BCAB69A97AA98BA99CA920E030E040E8BE
:1035C0005FE30E94DC2E88232CF481E090E098AB2E
:1035D0008FA73FC069A97AA98BA99CA920E03FEFDA
:1035E0004FE757E40E947C2E18164CF56DA97EA972
:1035F0008FA998AD20E030E040E251E40E94D62C43
:10360000DC01CB01BC01CD010E94002BDC01CB0110
:1036100098AB8FA70FC080E791E09EA78DA78DA5DF
:103620009EA50197F1F79EA78DA78FA598A9019751
:1036300098AB8FA78FA598A9009769F714C069A9BF
:103640007AA98BA99CA90E94002BDC01CB0198AB25
:103650008FA78FA598A99CA78BA78BA59CA5019741
:10366000F1F79CA78BA786E490E00E94660E0E946B
:10367000960C80E090E0A8ECB2E48FA398A7A9A7ED
:10368000BAA76FA178A589A59AA526E636E646E6EB
:1036900055E40E94D62CDC01CB018BA39CA3ADA3E7
:1036A000BEA36BA17CA18DA19EA120E030E040E8EB
:1036B0005FE30E94DC2E88232CF481E090E09AA343
:1036C00089A33FC06BA17CA18DA19EA120E03FEF0B
:1036D0004FE757E40E947C2E18164CF56FA178A591
:1036E00089A59AA520E030E040E251E40E94D62C62
:1036F000DC01CB01BC01CD010E94002BDC01CB0120
:103700009AA389A30FC080E791E098A38F8F8F8D34
:1037100098A10197F1F798A38F8F89A19AA101979A
:103720009AA389A389A19AA1009769F714C06BA1F4
:103730007CA18DA19EA10E94002BDC01CB019AA34C
:1037400089A389A19AA19E8F8D8F8D8D9E8D0197C2
:10375000F1F79E8F8D8F0E94892286E490E00E946F
:103760007D0E0E94960C80E090E0A8ECB2E4898F78
:103770009A8FAB8FBC8F698D7A8D8B8D9C8D26E651
:1037800036E646E655E40E94D62CDC01CB018D8B53
:103790009E8BAF8BB88F6D897E898F89988D20E045
:1037A00030E040E85FE30E94DC2E88232CF481E0C7
:1037B00090E09C8B8B8B3FC06D897E898F89988D23
:1037C00020E03FEF4FE757E40E947C2E18164CF59F
:1037D000698D7A8D8B8D9C8D20E030E040E251E444
:1037E0000E94D62CDC01CB01BC01CD010E94002B34
:1037F000DC01CB019C8B8B8B0FC080E791E09A8B17
:10380000898B89899A890197F1F79A8B898B8B89A2
:103810009C8901979C8B8B8B8B899C89009769F77E
:1038200014C06D897E898F89988D0E94002BDC01E0
:10383000CB019C8B8B8B8B899C89988B8F878F85F9
:1038400098890197F1F7988B8F8789AD9AAD813070
:10385000910529F488E290E00E94940E04C088E269
:1038600090E00E94A70E0E94960C80E090E0A8ECE9
:10387000B2E48B879C87AD87BE876B857C858D8501
:103880009E8526E636E646E655E40E94D62CDC0107
:10389000CB018F839887A987BA876F8178858985BF
:1038A0009A8520E030E040E85FE30E94DC2E882328
:1038B0002CF481E090E09E838D833FC06F817885FA
:1038C00089859A8520E03FEF4FE757E40E947C2EE0
:1038D00018164CF56B857C858D859E8520E030E043
:1038E00040E251E40E94D62CDC01CB01BC01CD01A9
:1038F0000E94002BDC01CB019E838D830FC080E7EB
:1039000091E09C838B838B819C810197F1F79C8351
:103910008B838D819E8101979E838D838D819E8176
:10392000009769F714C06F81788589859A850E9410
:10393000002BDC01CB019E838D838D819E819A8338
:10394000898389819A810197F1F79A838983EA961D
:103950000FB6F894DEBF0FBECDBFCF91DF910895B3
:10396000DF93CF93CDB7DEB728970FB6F894DEBFBD
:103970000FBECDBF98878F831E821D821C821B8243
:103980001A8219820E941E0F83E00E94100D8093FC
:10399000170382E00E94100D8093180381E00E94BB
:1039A000100D809319031A821982809118038A30AE
:1039B000D8F0809118038837B8F4809117038B30C2
:1039C00098F4809119038B3078F481E090E09A8329
:1039D00089830E94460C86E966E90E94510E8B811C
:1039E0009C8101969C838B83809118038B30B8F463
:1039F000809117038B3098F4809119038B3078F401
:103A000081E090E09A8389830E94460C86E966E90A
:103A10000E94510E8B819C8101969C838B838981AE
:103A20009A810097A1F4809117038B3080F08091E8
:103A300019038B3060F4809118038B3040F481E0DF
:103A400090E09A83898383E090E00E94BA0E898196
:103A50009A810097A1F4809119038B3080F08091B6
:103A600017038B3060F4809118038B3040F481E0B1
:103A700090E09A83898383E090E00E94D30E89814D
:103A80009A81009709F080CF80911803883748F415
:103A900080911903823828F480911703823808F442
:103AA00073CF81E090E09A8389832D813E818F815D
:103AB00098852817390734F40E94460C86E966E990
:103AC0000E94510E8B819C81853091050CF45CCF56
:103AD0008D819E8101969E838D831C821B822D8108
:103AE0003E818F8198852817390709F04DCF0E94B4
:103AF000960C0E94460C80E060E00E94510E2896D1
:103B00000FB6F894DEBF0FBECDBFCF91DF91089501
:103B10000F931F93DF93CF93CDB7DEB7C157D0403C
:103B20000FB6F894DEBF0FBECDBF0E941E0FFE0180
:103B3000EF58FF4F1082FE01EF58FF4F1082C2C0B6
:103B4000FE01EF58FF4F80810E94370FFE01E359BD
:103B5000FF4F80E090E0A0E8BFE380839183A283E1
:103B6000B3838E0107591F4FFE01E359FF4F608158
:103B700071818281938126E636E646E655E40E940D
:103B8000D62CDC01CB01F80180839183A283B3831F
:103B9000FE01E759FF4F608171818281938120E0AE
:103BA00030E040E85FE30E94DC2E882344F4FE010D
:103BB000E959FF4F81E090E09183808364C0FE016A
:103BC000E759FF4F608171818281938120E03FEF4F
:103BD0004FE757E40E947C2E18160CF043C0FE01FC
:103BE000E359FF4F608171818281938120E030E051
:103BF00040E251E40E94D62CDC01CB018E01095930
:103C00001F4FBC01CD010E94002BDC01CB01F8014C
:103C1000918380831FC0FE01EB59FF4F80E791E045
:103C200091838083FE01EB59FF4F80819181019741
:103C3000F1F7FE01EB59FF4F91838083DE01A95913
:103C4000BF4FFE01E959FF4F808191810197119685
:103C50009C938E93FE01E959FF4F808191810097DB
:103C6000D1F627C08E0109591F4FFE01E759FF4FBA
:103C700060817181828193810E94002BDC01CB01E4
:103C8000F80191838083DE01AD59BF4FFE01E959F0
:103C9000FF4F808191818D939C93FE01ED59FF4FE1
:103CA000808191810197F1F7FE01ED59FF4F9183DA
:103CB0008083DE01AF58BF4FFE01EF58FF4F808178
:103CC0008F5F8C93FE01EF58FF4F80818A3008F49C
:103CD00037CFFE01E15AFF4F80E090E0AFE2B4E45D
:103CE00080839183A283B3838E01055A1F4FFE0107
:103CF000E15AFF4F608171818281938126E636E629
:103D000046E655E40E94D62CDC01CB01F801808305
:103D10009183A283B383FE01E55AFF4F60817181D5
:103D20008281938120E030E040E85FE30E94DC2E56
:103D3000882344F4FE01E75AFF4F81E090E091832D
:103D4000808364C0FE01E55AFF4F608171818281EA
:103D5000938120E03FEF4FE757E40E947C2E181636
:103D60000CF043C0FE01E15AFF4F608171818281F6
:103D7000938120E030E040E251E40E94D62CDC0147
:103D8000CB018E01075A1F4FBC01CD010E94002BB1
:103D9000DC01CB01F801918380831FC0FE01E95A49
:103DA000FF4F80E791E091838083FE01E95AFF4F46
:103DB000808191810197F1F7FE01E95AFF4F9183CC
:103DC0008083DE01A75ABF4FFE01E75AFF4F808173
:103DD0009181019711969C938E93FE01E75AFF4FB4
:103DE000808191810097D1F627C08E01075A1F4F1D
:103DF000FE01E55AFF4F60817181828193810E94AB
:103E0000002BDC01CB01F80191838083DE01AB5AEA
:103E1000BF4FFE01E75AFF4F808191818D939C93A4
:103E2000FE01EB5AFF4F808191810197F1F7FE016E
:103E3000EB5AFF4F918380830E94D30F0E94E20FC1
:103E4000FE01EF58FF4F1082C2C0FE01EF58FF4F36
:103E500080810E94850FFE01EF5AFF4F80E090E0C5
:103E6000A0EFB1E480839183A283B3838E01035BCF
:103E70001F4FFE01EF5AFF4F608171818281938154
:103E800026E636E646E655E40E94D62CDC01CB0158
:103E9000F80180839183A283B383FE01E35BFF4F2C
:103EA000608171818281938120E030E040E85FE3AE
:103EB0000E94DC2E882344F4FE01E55BFF4F81E085
:103EC00090E09183808364C0FE01E35BFF4F6081DB
:103ED00071818281938120E03FEF4FE757E40E9498
:103EE0007C2E18160CF043C0FE01EF5AFF4F608184
:103EF00071818281938120E030E040E251E40E94B0
:103F0000D62CDC01CB018E01055B1F4FBC01CD011E
:103F10000E94002BDC01CB01F801918380831FC03C
:103F2000FE01E75BFF4F80E791E091838083FE0114
:103F3000E75BFF4F808191810197F1F7FE01E75B1D
:103F4000FF4F91838083DE01A55BBF4FFE01E55BE0
:103F5000FF4F80819181019711969C938E93FE0172
:103F6000E55BFF4F808191810097D1F627C08E01DC
:103F7000055B1F4FFE01E35BFF4F60817181828112
:103F800093810E94002BDC01CB01F8019183808397
:103F9000DE01A95BBF4FFE01E55BFF4F8081918190
:103FA0008D939C93FE01E95BFF4F80819181019786
:103FB000F1F7FE01E95BFF4F91838083DE01AF588B
:103FC000BF4FFE01EF58FF4F80818F5F8C93FE0142
:103FD000EF58FF4F80818D3208F437CFFE01ED5B43
:103FE000FF4F80E090E0AFE2B4E480839183A2834E
:103FF000B3838E01015C1F4FFE01ED5BFF4F6081BB
:1040000071818281938126E636E646E655E40E9478
:10401000D62CDC01CB01F80180839183A283B3838A
:10402000FE01FF96608171818281938120E030E002
:1040300040E85FE30E94DC2E88232CF481E090E0CE
:104040009EAF8DAF46C0FE01FF9660817181828177
:10405000938120E03FEF4FE757E40E947C2E181633
:1040600064F5FE01ED5BFF4F608171818281938178
:1040700020E030E040E251E40E94D62CDC01CB018C
:10408000BC01CD010E94002BDC01CB019EAF8DAFA6
:104090000FC080E791E09CAF8BAF8BAD9CAD0197DB
:1040A000F1F79CAF8BAF8DAD9EAD01979EAF8DAFFD
:1040B0008DAD9EAD009769F716C0FE01FF96608139
:1040C0007181828193810E94002BDC01CB019EAF24
:1040D0008DAF8DAD9EAD9AAF89AF89AD9AAD019789
:1040E000F1F79AAF89AF0E94D30F0E94E20FFE0151
:1040F000EF58FF4F108281C0FE01EF58FF4F8081C3
:104100000E94370F80E090E0A0E7B1E48DAB9EAB5A
:10411000AFABB8AF6DA97EA98FA998AD26E636E6FC
:1041200046E655E40E94D62CDC01CB0189AB9AAB64
:10413000ABABBCAB69A97AA98BA99CA920E030E004
:1041400040E85FE30E94DC2E88232CF481E090E0BD
:1041500098AB8FA73FC069A97AA98BA99CA920E039
:104160003FEF4FE757E40E947C2E18164CF56DA9DF
:104170007EA98FA998AD20E030E040E251E40E9492
:10418000D62CDC01CB01BC01CD010E94002BDC014F
:10419000CB0198AB8FA70FC080E791E09EA78DA7BA
:1041A0008DA59EA50197F1F79EA78DA78FA598A92C
:1041B000019798AB8FA78FA598A9009769F714C0AE
:1041C00069A97AA98BA99CA90E94002BDC01CB01CB
:1041D00098AB8FA78FA598A99CA78BA78BA59CA50B
:1041E0000197F1F79CA78BA7DE01AF58BF4FFE01E7
:1041F000EF58FF4F80818F5F8C93FE01EF58FF4F88
:104200008081843108F478CF80E090E0AFE2B4E4BC
:104210008FA398A7A9A7BAA76FA178A589A59AA5E2
:1042200026E636E646E655E40E94D62CDC01CB01B4
:104230008BA39CA3ADA3BEA36BA17CA18DA19EA1CA
:1042400020E030E040E85FE30E94DC2E88232CF47D
:1042500081E090E09AA389A33FC06BA17CA18DA1CE
:104260009EA120E03FEF4FE757E40E947C2E1816F6
:104270004CF56FA178A589A59AA520E030E040E231
:1042800051E40E94D62CDC01CB01BC01CD010E947F
:10429000002BDC01CB019AA389A30FC080E791E03A
:1042A00098A38F8F8F8D98A10197F1F798A38F8F87
:1042B00089A19AA101979AA389A389A19AA100979C
:1042C00069F714C06BA17CA18DA19EA10E94002B57
:1042D000DC01CB019AA389A389A19AA19E8F8D8F1E
:1042E0008D8D9E8D0197F1F79E8F8D8F0E94D30F3C
:1042F0000E94E20FFE01EF58FF4F108281C0FE01C5
:10430000EF58FF4F80810E94850F80E090E0ACE085
:10431000B2E4898F9A8FAB8FBC8F698D7A8D8B8D2C
:104320009C8D26E636E646E655E40E94D62CDC0156
:10433000CB018D8B9E8BAF8BB88F6D897E898F89DA
:10434000988D20E030E040E85FE30E94DC2E882377
:104350002CF481E090E09C8B8B8B3FC06D897E8933
:104360008F89988D20E03FEF4FE757E40E947C2E25
:1043700018164CF5698D7A8D8B8D9C8D20E030E080
:1043800040E251E40E94D62CDC01CB01BC01CD01FE
:104390000E94002BDC01CB019C8B8B8B0FC080E734
:1043A00091E09A8B898B89899A890197F1F79A8B89
:1043B000898B8B899C8901979C8B8B8B8B899C89A2
:1043C000009769F714C06D897E898F89988D0E9446
:1043D000002BDC01CB019C8B8B8B8B899C89988B70
:1043E0008F878F8598890197F1F7988B8F87DE01EA
:1043F000AF58BF4FFE01EF58FF4F80818F5F8C9306
:10440000FE01EF58FF4F8081853008F478CF80E0BF
:1044100090E0AFE2B4E48B879C87AD87BE876B8565
:104420007C858D859E8526E636E646E655E40E9427
:10443000D62CDC01CB018F839887A987BA876F813F
:10444000788589859A8520E030E040E85FE30E9426
:10445000DC2E88232CF481E090E09E838D833FC086
:104460006F81788589859A8520E03FEF4FE757E493
:104470000E947C2E18164CF56B857C858D859E855B
:1044800020E030E040E251E40E94D62CDC01CB0178
:10449000BC01CD010E94002BDC01CB019E838D83EA
:1044A0000FC080E791E09C838B838B819C81019777
:1044B000F1F79C838B838D819E8101979E838D83F1
:1044C0008D819E81009769F714C06F8178858985F9
:1044D0009A850E94002BDC01CB019E838D838D8108
:1044E0009E819A83898389819A810197F1F79A83C2
:1044F00089830E94D30F0E94E20FCF58DF4F0FB67F
:10450000F894DEBF0FBECDBFCF91DF911F910F9109
:1045100008950F931F93DF93CF93CDB7DEB7C157A5
:10452000D0400FB6F894DEBF0FBECDBF0E941E0F65
:10453000FE01EF58FF4F1082FE01EF58FF4F10822F
:10454000C2C0FE01EF58FF4F80810E94850FFE011F
:10455000E359FF4F80E090E0A0EFB1E480839183C6
:10456000A283B3838E0107591F4FFE01E359FF4F0A
:10457000608171818281938126E636E646E655E4C4
:104580000E94D62CDC01CB01F80180839183A283A9
:10459000B383FE01E759FF4F60817181828193816E
:1045A00020E030E040E85FE30E94DC2E882344F402
:1045B000FE01E959FF4F81E090E09183808364C060
:1045C000FE01E759FF4F608171818281938120E074
:1045D0003FEF4FE757E40E947C2E18160CF043C0C3
:1045E000FE01E359FF4F608171818281938120E058
:1045F00030E040E251E40E94D62CDC01CB018E0178
:1046000009591F4FBC01CD010E94002BDC01CB01D9
:10461000F801918380831FC0FE01EB59FF4F80E7B3
:1046200091E091838083FE01EB59FF4F808191815E
:104630000197F1F7FE01EB59FF4F91838083DE0173
:10464000A959BF4FFE01E959FF4F80819181019720
:1046500011969C938E93FE01E959FF4F80819181C1
:104660000097D1F627C08E0109591F4FFE01E75967
:10467000FF4F60817181828193810E94002BDC0158
:10468000CB01F80191838083DE01AD59BF4FFE015C
:10469000E959FF4F808191818D939C93FE01ED59E3
:1046A000FF4F808191810197F1F7FE01ED59FF4F96
:1046B00091838083DE01AF58BF4FFE01EF58FF4F5B
:1046C00080818F5F8C93FE01EF58FF4F80818D3288
:1046D00008F437CFFE01E15AFF4F80E090E0AFE2EF
:1046E000B4E480839183A283B3838E01055A1F4F64
:1046F000FE01E15AFF4F608171818281938126E63C
:1047000036E646E655E40E94D62CDC01CB01F801E2
:1047100080839183A283B383FE01E55AFF4F6081BA
:1047200071818281938120E030E040E85FE30E9464
:10473000DC2E882344F4FE01E75AFF4F81E090E02D
:104740009183808364C0FE01E55AFF4F60817181CF
:104750008281938120E03FEF4FE757E40E947C2E57
:1047600018160CF043C0FE01E15AFF4F60817181C1
:104770008281938120E030E040E251E40E94D62C17
:10478000DC01CB018E01075A1F4FBC01CD010E94F5
:10479000002BDC01CB01F801918380831FC0FE0157
:1047A000E95AFF4F80E791E091838083FE01E95A47
:1047B000FF4F808191810197F1F7FE01E95AFF4F88
:1047C00091838083DE01A75ABF4FFE01E75AFF4F56
:1047D00080819181019711969C938E93FE01E75AF7
:1047E000FF4F808191810097D1F627C08E01075A33
:1047F0001F4FFE01E55AFF4F6081718182819381D5
:104800000E94002BDC01CB01F80191838083DE0143
:10481000AB5ABF4FFE01E75AFF4F808191818D93C4
:104820009C93FE01EB5AFF4F808191810197F1F734
:10483000FE01EB5AFF4F918380830E94D30F0E94A9
:10484000E20FFE01EF58FF4F1082C2C0FE01EF5889
:10485000FF4F80810E94370FFE01EF5AFF4F80E02B
:1048600090E0A0EFB1E480839183A283B3838E01B3
:10487000035B1F4FFE01EF5AFF4F60817181828100
:10488000938126E636E646E655E40E94D62CDC0106
:10489000CB01F80180839183A283B383FE01E35BA4
:1048A000FF4F608171818281938120E030E040E898
:1048B0005FE30E94DC2E882344F4FE01E55BFF4F9A
:1048C00081E090E09183808364C0FE01E35BFF4F51
:1048D000608171818281938120E03FEF4FE757E44F
:1048E0000E947C2E18160CF043C0FE01EF5AFF4FB9
:1048F000608171818281938120E030E040E251E467
:104900000E94D62CDC01CB018E01055B1F4FBC0140
:10491000CD010E94002BDC01CB01F8019183808343
:104920001FC0FE01E75BFF4F80E791E0918380832A
:10493000FE01E75BFF4F808191810197F1F7FE0156
:10494000E75BFF4F91838083DE01A55BBF4FFE01D4
:10495000E55BFF4F80819181019711969C938E9327
:10496000FE01E55BFF4F808191810097D1F627C062
:104970008E01055B1F4FFE01E35BFF4F608171817C
:10498000828193810E94002BDC01CB01F80191838D
:104990008083DE01A95BBF4FFE01E55BFF4F808195
:1049A00091818D939C93FE01E95BFF4F8081918102
:1049B0000197F1F7FE01E95BFF4F91838083DE01F0
:1049C000AF58BF4FFE01EF58FF4F80818F5F8C9330
:1049D000FE01EF58FF4F80818A3008F437CFFE0187
:1049E000ED5BFF4F80E090E0AFE2B4E48083918321
:1049F000A283B3838E01015C1F4FFE01ED5BFF4F6D
:104A0000608171818281938126E636E646E655E42F
:104A10000E94D62CDC01CB01F80180839183A28314
:104A2000B383FE01FF96608171818281938120E0D2
:104A300030E040E85FE30E94DC2E88232CF481E024
:104A400090E09EAF8DAF46C0FE01FF966081718100
:104A50008281938120E03FEF4FE757E40E947C2E54
:104A6000181664F5FE01ED5BFF4F60817181828154
:104A7000938120E030E040E251E40E94D62CDC013A
:104A8000CB01BC01CD010E94002BDC01CB019EAF0C
:104A90008DAF0FC080E791E09CAF8BAF8BAD9CAD2D
:104AA0000197F1F79CAF8BAF8DAD9EAD01979EAF97
:104AB0008DAF8DAD9EAD009769F716C0FE01FF96D4
:104AC00060817181828193810E94002BDC01CB0186
:104AD0009EAF8DAF8DAD9EAD9AAF89AF89AD9AADCA
:104AE0000197F1F79AAF89AFFE01EF58FF4F10829F
:104AF00081C0FE01EF58FF4F80810E94850F80E04A
:104B000090E0ACE0B2E48DAB9EABAFABB8AF6DA9BB
:104B10007EA98FA998AD26E636E646E655E40E94C2
:104B2000D62CDC01CB0189AB9AABABABBCAB69A992
:104B30007AA98BA99CA920E030E040E85FE30E94BD
:104B4000DC2E88232CF481E090E098AB8FA73FC047
:104B500069A97AA98BA99CA920E03FEF4FE757E408
:104B60000E947C2E18164CF56DA97EA98FA998ADD0
:104B700020E030E040E251E40E94D62CDC01CB0181
:104B8000BC01CD010E94002BDC01CB0198AB8FA7AB
:104B90000FC080E791E09EA78DA78DA59EA50197E8
:104BA000F1F79EA78DA78FA598A9019798AB8FA71E
:104BB0008FA598A9009769F714C069A97AA98BA94C
:104BC0009CA90E94002BDC01CB0198AB8FA78FA57D
:104BD00098A99CA78BA78BA59CA50197F1F79CA7EB
:104BE0008BA7DE01AF58BF4FFE01EF58FF4F80810A
:104BF0008F5F8C93FE01EF58FF4F8081853008F462
:104C000078CF80E090E0AFE2B4E48FA398A7A9A7A3
:104C1000BAA76FA178A589A59AA526E636E646E645
:104C200055E40E94D62CDC01CB018BA39CA3ADA341
:104C3000BEA36BA17CA18DA19EA120E030E040E845
:104C40005FE30E94DC2E88232CF481E090E09AA39D
:104C500089A33FC06BA17CA18DA19EA120E03FEF65
:104C60004FE757E40E947C2E18164CF56FA178A5EB
:104C700089A59AA520E030E040E251E40E94D62CBC
:104C8000DC01CB01BC01CD010E94002BDC01CB017A
:104C90009AA389A30FC080E791E098A38F8F8F8D8F
:104CA00098A10197F1F798A38F8F89A19AA10197F5
:104CB0009AA389A389A19AA1009769F714C06BA14F
:104CC0007CA18DA19EA10E94002BDC01CB019AA3A7
:104CD00089A389A19AA19E8F8D8F8D8D9E8D01971D
:104CE000F1F79E8F8D8F0E94D30F0E94E20FFE017D
:104CF000EF58FF4F108281C0FE01EF58FF4F8081B7
:104D00000E94370F80E090E0A0E8BFE3898F9A8F80
:104D1000AB8FBC8F698D7A8D8B8D9C8D26E636E6A8
:104D200046E655E40E94D62CDC01CB018D8B9E8B90
:104D3000AF8BB88F6D897E898F89988D20E030E0A8
:104D400040E85FE30E94DC2E88232CF481E090E0B1
:104D50009C8B8B8B3FC06D897E898F89988D20E0DD
:104D60003FEF4FE757E40E947C2E18164CF5698DF3
:104D70007A8D8B8D9C8D20E030E040E251E40E94E2
:104D8000D62CDC01CB01BC01CD010E94002BDC0143
:104D9000CB019C8B8B8B0FC080E791E09A8B898B2A
:104DA00089899A890197F1F79A8B898B8B899C89DC
:104DB00001979C8B8B8B8B899C89009769F714C01A
:104DC0006D897E898F89988D0E94002BDC01CB0133
:104DD0009C8B8B8B8B899C89988B8F878F859889EF
:104DE0000197F1F7988B8F87DE01AF58BF4FFE0117
:104DF000EF58FF4F80818F5F8C93FE01EF58FF4F7C
:104E00008081863108F478CF80E090E0AFE2B4E4AE
:104E10008B879C87AD87BE876B857C858D859E85BE
:104E200026E636E646E655E40E94D62CDC01CB01A8
:104E30008F839887A987BA876F81788589859A85B6
:104E400020E030E040E85FE30E94DC2E88232CF471
:104E500081E090E09E838D833FC06F817885898556
:104E60009A8520E03FEF4FE757E40E947C2E18160A
:104E70004CF56B857C858D859E8520E030E040E299
:104E800051E40E94D62CDC01CB01BC01CD010E9473
:104E9000002BDC01CB019E838D830FC080E791E066
:104EA0009C838B838B819C810197F1F79C838B83FF
:104EB0008D819E8101979E838D838D819E81009738
:104EC00069F714C06F81788589859A850E94002BC7
:104ED000DC01CB019E838D838D819E819A838983A2
:104EE00089819A810197F1F79A8389830E94D30F70
:104EF0000E94E20FCF58DF4F0FB6F894DEBF0FBE0F
:104F0000CDBFCF91DF911F910F9108950F931F9304
:104F1000DF93CF93CDB7DEB7C854D0400FB6F89427
:104F2000DEBF0FBECDBF0E941E0F1CAE1BAE1AAE61
:104F300019AE18AE1FAA1AA619A618A61FA21EA25D
:104F40001DA2ECE2F0E080818823DCF70E94A00C37
:104F50000E9495000E9494058CE393E00E94FD322C
:104F60009CAF8BAF8BAD9CAD0197FC01E45CFC4F1B
:104F70008081833231F71AAE19AE10923803109245
:104F800037033AC08091370390913803FC01E45C09
:104F9000FC4F80818C3539F1809137039091380333
:104FA000FC01E45CFC4F80818E36E9F08091370390
:104FB00090913803FC01E45CFC4F8081833299F0CE
:104FC00029AD3AAD8091370390913803FC01E45C40
:104FD000FC4F8081F901E059FC4F808389AD9AAD87
:104FE00001969AAF89AF809137039091380301966B
:104FF000909338038093370380913703909138035F
:105000008C018CE393E00E94FD320817190708F425
:10501000B9CF80E793E024E032E0B9010E94F13299
:105020009CA38BA334C042EA53E080912403909167
:1050300025039C01220F331F220F331FC901880F44
:10504000991F880F991F820F931F840F951F9AA392
:1050500089A389A19AA12BA13CA1B9010E94F63292
:1050600024E032E080E090E0B9010E94F1329CA39C
:105070008BA389A19AA101969AA389A38091240365
:1050800090912503019690932503809324038BA18F
:105090009CA1009741F618A21F8E42C042EA53E03D
:1050A0008F8D98A19C01220F331F220F331FC9013E
:1050B000880F991F880F991F820F931F840F951FC8
:1050C0000E94E608809124039091250321969FAFCA
:1050D0008EAF219721968EAD9FAD219799234CF4E9
:1050E00021968EAD9FAD2197019621969FAF8EAFF1
:1050F000219721968EAD9FAD2197959587959C011F
:10510000215030408F8D98A18217930724F484E0BA
:1051100092E00E94E6088F8D98A1019698A38F8F48
:10512000809124039091250323969FAF8EAF239700
:1051300023968EAD9FAD239799234CF423968EAD85
:105140009FAD2397019623969FAF8EAF239723960B
:105150008EAD9FAD2397959587959C018F8D98A1D6
:10516000821793070CF49ACF82E061E00E94030952
:10517000809124039091250325969FAF8EAF2597AC
:1051800025968EAD9FAD259799234CF425968EAD2F
:105190009FAD2597019625969FAF8EAF25972596B3
:1051A0008EAD9FAD2597959587959E8F8D8F29C044
:1051B00042EA53E08D8D9E8D9C01220F331F220FFA
:1051C000331FC901880F991F880F991F820F931FE2
:1051D000840F951F0E94E608809124039091250377
:1051E0009C01215030408D8D9E8D8217930724F4B1
:1051F00084E092E00E94E6088D8D9E8D01969E8F40
:105200008D8F20912403309125038D8D9E8D8217E3
:10521000930774F2ECE2F0E080818823DCF318AEAF
:105220001FAA809124039091250327969FAF8EAFEC
:10523000279727968EAD9FAD279799234CF42796F5
:105240008EAD9FAD2797019627969FAF8EAF27977C
:1052500027968EAD9FAD2797959587959AA789A795
:1052600082E00E94100D809318038091180380370C
:1052700008F079C00E94460C8BE966E90E94510E45
:1052800080E090E0AAEFB3E4898F9A8FAB8FBC8F58
:10529000698D7A8D8B8D9C8D26E636E646E655E443
:1052A0000E94D62CDC01CB018D8B9E8BAF8BB88FEF
:1052B0006D897E898F89988D20E030E040E85FE33A
:1052C0000E94DC2E88232CF481E090E09C8B8B8B59
:1052D0003FC06D897E898F89988D20E03FEF4FE731
:1052E00057E40E947C2E18164CF5698D7A8D8B8DB3
:1052F0009C8D20E030E040E251E40E94D62CDC019D
:10530000CB01BC01CD010E94002BDC01CB019C8BA9
:105310008B8B0FC080E791E09A8B898B89899A8962
:105320000197F1F79A8B898B8B899C8901979C8BCC
:105330008B8B8B899C89009769F792CF6D897E89C9
:105340008F89988D0E94002BDC01CB019C8B8B8B6D
:105350008B899C89988B8F878F8598890197F1F726
:10536000988B8F877DCF0E94460C80E060E00E9482
:10537000510EA0C042EA53E08FA998AD9C01220FC4
:10538000331F220F331FC901880F991F880F991FE0
:10539000820F931F840F951F0E94D3329EAB8DAB5B
:1053A0000E941E0F42EA53E089A59AA59C01220F94
:1053B000331F220F331FC901880F991F880F991FB0
:1053C000820F931F9A01280F391F89A59AA501966C
:1053D0009AA789A7CE01CD96B9010E94F6328DAD6C
:1053E000882F90E08154904098A78FA38EAD882F8E
:1053F00090E0C1979EA38DA38DA99EA901972FA18F
:1054000038A54DA15EA1B9010E94F10F98AB8FA7FD
:10541000EFA5F8A9808191819CAB8BAB8FA598A952
:10542000FC013296808191819AAB89AB8FA998ADAE
:10543000009769F42FA138A5EDA1FEA180E090E0CE
:1054400060E070E0A9019F010E94B6130CC08DA519
:105450009EA52BA53CA54FA158A5EDA1FEA1B90184
:105460009F010E94B613CE01CD960E9493178FA183
:1054700098A52DA13EA14BA95CA9E9A9FAA9B9015A
:105480009F010E94B6138DA99EA901972BA93CA943
:1054900049A95AA9B9010E9412158BA99CA99EA7D6
:1054A0008DA789A99AA99CA78BA78FA998AD0196CA
:1054B00098AF8FAB809124039091250329969FAFDD
:1054C0008EAF299729968EAD9FAD299799234CF4DD
:1054D00029968EAD9FAD2997019629969FAF8EAFE5
:1054E000299729968EAD9FAD2997959587959C0113
:1054F0008FA998AD821793070CF43CCF0E947D0AC8
:1055000080E090E4ACE9B5E48B879C87AD87BE87EB
:105510006B857C858D859E8526E636E646E655E4D8
:105520000E94D62CDC01CB018F839887A987BA878C
:105530006F81788589859A8520E030E040E85FE3D7
:105540000E94DC2E88232CF481E090E09E838D83E2
:105550003FC06F81788589859A8520E03FEF4FE7CE
:1055600057E40E947C2E18164CF56B857C858D8542
:105570009E8520E030E040E251E40E94D62CDC0120
:10558000CB01BC01CD010E94002BDC01CB019E832D
:105590008D830FC080E791E09C838B838B819C81FE
:1055A0000197F1F79C838B838D819E8101979E8368
:1055B0008D838D819E81009769F714C06F817885F6
:1055C00089859A850E94002BDC01CB019E838D8307
:1055D0008D819E819A83898389819A810197F1F7D0
:1055E0009A8389830E94920AC85BDF4F0FB6F894B2
:1055F000DEBF0FBECDBFCF91DF911F910F910895F8
:10560000EF92FF920F931F937B018C0120E030E01B
:1056100040E05FE40E94AC2E88238CF0C801B70103
:1056200020E030E040E05FE40E94782C0E940C2FE4
:105630009B01AC01205030404040504806C0C8019A
:10564000B7010E940C2F9B01AC01B901CA011F9147
:105650000F91FF90EF900895A0E0B0E0E2E3FBE24D
:105660000C946733DC012B01FA019C91923008F411
:1056700039C1EB018881823008F433C1943069F478
:10568000843009F02FC111969C9111978981981748
:1056900009F428C1A7E0B2E025C1843009F421C192
:1056A0008230A9F4923009F01DC19A01AD0188E061
:1056B000EA010990AE01E90109929E018150C1F70A
:1056C000E201898111969C918923818308C19230DE
:1056D00009F407C112962D903C901397EB018A8133
:1056E0009B811496AD90BD90CD90DC901797EC8087
:1056F000FD800E811F819101281B390BB90137FFF5
:1057000004C066277727621B730B603271050CF0AB
:1057100061C0121613066CF537014801062E04C04D
:1057200096948794779467940A94D2F721E030E0B6
:1057300040E050E004C0220F331F441F551F6A95FC
:10574000D2F721503040404050402E213F2140238D
:105750005123211531054105510521F021E030E0AB
:1057600040E050E079018A01E628F7280829192944
:105770003CC0232BD1F1260E371E35014601062EE3
:1057800004C096948794779467940A94D2F721E0A2
:1057900030E040E050E004C0220F331F441F551F8B
:1057A0006A95D2F721503040404050402A213B2199
:1057B0004C215D21211531054105510521F021E0E4
:1057C00030E040E050E059016A01A628B728C82817
:1057D000D9280BC0821593052CF01C01AA24BB24E8
:1057E000650103C0EE24FF24870111969C91D2012C
:1057F00011968C91981709F445C0992339F0A801A6
:1058000097012A193B094C095D0906C0A6019501BB
:105810002E193F09400B510B57FD08C011823382EE
:10582000228224833583468357831DC081E0818390
:105830003382228288279927DC01821B930BA40BD9
:10584000B50B84839583A683B7830DC0220F331FC6
:10585000441F551F24833583468357838281938158
:105860000197938382832481358146815781DA01B0
:10587000C9010197A109B1098F5F9F4FAF4FBF4386
:1058800028F30BC0918333822282EA0CFB1C0C1D8F
:105890001D1DE482F5820683178383E080832481C3
:1058A00035814681578157FF1AC0C901AA2797FD44
:1058B000A095BA2F81709070A070B07056954795E2
:1058C00037952795822B932BA42BB52B8483958317
:1058D000A683B78382819381019693838283DF01BC
:1058E00001C0D201CD01CDB7DEB7E2E10C94833324
:1058F000A0E2B0E0EEE7FCE20C94733369837A83B4
:105900008B839C832D833E834F835887E9E0EE2E63
:10591000F12CEC0EFD1ECE010196B7010E94FD3068
:105920008E010F5E1F4FCE010596B8010E94FD301B
:105930008A8991E089278A8BC701B801AE01475E49
:105940005F4F0E942C2B0E942830A096E6E00C941A
:105950008F33A0E2B0E0EFEAFCE20C94733369838A
:105960007A838B839C832D833E834F835887F9E012
:10597000EF2EF12CEC0EFD1ECE010196B7010E9418
:10598000FD308E010F5E1F4FCE010596B8010E94BB
:10599000FD30C701B801AE01475E5F4F0E942C2B5E
:1059A0000E942830A096E6E00C948F33A0E2B0E08D
:1059B000ECEDFCE20C94673369837A838B839C83E0
:1059C0002D833E834F835887CE010196BE01675FCA
:1059D0007F4F0E94FD30CE010596BE016F5E7F4F66
:1059E0000E94FD309985923088F089898230C8F014
:1059F000943019F4823051F404C0843029F4923088
:105A000081F487E092E0C6C0923049F420E09A85A4
:105A10008A89981321E02A87CE010996BBC082307B
:105A200049F420E09A858A89981321E02A8BCE01D7
:105A30004196B0C02D843E844F8458886D887E88FE
:105A40008F88988CEE24FF248701AA24BB2465014B
:105A500040E050E060E070E0E0E0F0E0C101817023
:105A60009070892BE9F0E60CF71C081D191D9A01AE
:105A7000AB012A0D3B1D4C1D5D1D80E090E0A0E0B8
:105A8000B0E0E614F7040805190520F481E090E081
:105A9000A0E0B0E0BA01A901480F591F6A1F7B1F9F
:105AA000AA0CBB1CCC1CDD1C97FE08C081E090E05A
:105AB000A0E0B0E0A82AB92ACA2ADB2A3196E0324F
:105AC000F10549F0660C771C881C991C5694479484
:105AD00037942794C3CFFA85EA892B893C898B8533
