:100000000C9472000C9493000C9493000C94930045
:100010000C9493000C94030C0C94D80B0C94930048
:100020000C9493000C9493000C9493000C94930004
:100030000C9493000C9493000C9493000C949300F4
:100040000C9493000C9493000C9493000C949300E4
:100050000C9493000C9493000C9493000C949300D4
:100060000C9493000C9493000C9493000C949300C4
:100070000C9493000C9493000C9493000C949300B4
:100080000C9493000C9493000C9493000C949300A4
:100090000C9493000C9493000C9493000C94930094
:1000A0000C9493000C9493000C9493000C94930084
:1000B0000C9493000C9493000C9493000C94930074
:1000C0000C9493000C9493000C9493000C94C30A2A
:1000D0000C9493000C9493000C9493000C94930054
:1000E0000C94930011241FBECFEFD1E2DEBFCDBF31
:1000F00000E00CBF13E0A0E0B2E0E8EAF1E800E0C5
:100100000BBF02C007900D92A631B107D9F717E0D7
:10011000A6E1B3E001C01D92A439B107E1F70E9446
:1001200093340C94D2400C9400000F931F93DF93F0
:10013000CF93CDB7DEB7C057D0400FB6F894DEBF2F
:100140000FBECDBFFE01E359FF4F80E090E0A0E875
:10015000BFE380839183A283B3838E0107591F4F2E
:10016000FE01E359FF4F608171818281938126E610
:1001700036E646E655E40E940A3ADC01CB01F80176
:1001800080839183A283B383FE01E759FF4F60818F
:1001900071818281938120E030E040E85FE30E943A
:1001A000103C882344F4FE01E959FF4F81E090E0C0
:1001B0009183808364C0FE01E759FF4F60817181A4
:1001C0008281938120E03FEF4FE757E40E94B03BEC
:1001D00018160CF043C0FE01E359FF4F6081718196
:1001E0008281938120E030E040E251E40E940A3AAB
:1001F000DC01CB018E0109591F4FBC01CD010E94CA
:100200003438DC01CB01F801918380831FC0FE01EB
:10021000EB59FF4F80E791E091838083FE01EB591A
:10022000FF4F808191810197F1F7FE01EB59FF4F5C
:1002300091838083DE01A959BF4FFE01E959FF4F29
:1002400080819181019711969C938E93FE01E959CB
:10025000FF4F808191810097D1F627C08E01095907
:100260001F4FFE01E759FF4F6081718182819381A9
:100270000E943438DC01CB01F80191838083DE01D8
:10028000AD59BF4FFE01E959FF4F808191818D9398
:100290009C93FE01ED59FF4F808191810197F1F709
:1002A000FE01ED59FF4F91838083A8E2B0E0E8E2C0
:1002B000F0E080818E7F8C93A8E2B0E0E8E2F0E08D
:1002C00080818D7F8C93E8E2F0E080E38083A8E278
:1002D000B0E0E8E2F0E0808184608C93FE01E15AB6
:1002E000FF4F80E090E0A0EAB0E480839183A28396
:1002F000B3838E01055A1F4FFE01E15AFF4F608103
:1003000071818281938126E636E646E655E40E94B5
:100310000A3ADC01CB01F80180839183A283B38385
:10032000FE01E55AFF4F608171818281938120E057
:1003300030E040E85FE30E94103C882344F4FE0173
:10034000E75AFF4F81E090E09183808364C0FE0113
:10035000E55AFF4F608171818281938120E03FEFF8
:100360004FE757E40E94B03B18160CF043C0FE0163
:10037000E15AFF4F608171818281938120E030E0FA
:1003800040E251E40E940A3ADC01CB018E01075A97
:100390001F4FBC01CD010E943438DC01CB01F801B4
:1003A000918380831FC0FE01E95AFF4F80E791E0EF
:1003B00091838083FE01E95AFF4F808191810197EB
:1003C000F1F7FE01E95AFF4F91838083DE01A75ABE
:1003D000BF4FFE01E75AFF4F80819181019711962F
:1003E0009C938E93FE01E75AFF4F80819181009785
:1003F000D1F627C08E01075A1F4FFE01E55AFF4F65
:1004000060817181828193810E943438DC01CB014B
:10041000F80191838083DE01AB5ABF4FFE01E75A9A
:10042000FF4F808191818D939C93FE01EB5AFF4F8A
:10043000808191810197F1F7FE01EB5AFF4F918383
:100440008083A8E2B0E0E8E2F0E080818B7F8C93CB
:10045000FE01EF5AFF4F80E090E0A0E8BFE3808309
:100460009183A283B3838E01035B1F4FFE01EF5A7A
:10047000FF4F608171818281938126E636E646E6F0
:1004800055E40E940A3ADC01CB01F8018083918394
:10049000A283B383FE01E35BFF4F608171818281A0
:1004A000938120E030E040E85FE30E94103C882325
:1004B00044F4FE01E55BFF4F81E090E0918380838F
:1004C00064C0FE01E35BFF4F608171818281938193
:1004D00020E03FEF4FE757E40E94B03B18160CF0C6
:1004E00043C0FE01EF5AFF4F608171818281938189
:1004F00020E030E040E251E40E940A3ADC01CB0106
:100500008E01055B1F4FBC01CD010E943438DC0118
:10051000CB01F801918380831FC0FE01E75BFF4F91
:1005200080E791E091838083FE01E75BFF4F80814C
:1005300091810197F1F7FE01E75BFF4F9183808383
:10054000DE01A55BBF4FFE01E55BFF4F808191811E
:10055000019711969C938E93FE01E55BFF4F80817E
:1005600091810097D1F627C08E01055B1F4FFE01D8
:10057000E35BFF4F60817181828193810E943438F7
:10058000DC01CB01F80191838083DE01A95BBF4FC1
:10059000FE01E55BFF4F808191818D939C93FE016D
:1005A000E95BFF4F808191810197F1F7FE01E95BE3
:1005B000FF4F91838083A8E2B0E0E8E2F0E0808121
:1005C0008E7F8C93A8E2B0E0E8E2F0E080818D7F3E
:1005D0008C93E8E2F0E080E38083A8E2B0E0E8E218
:1005E000F0E0808184608C93FE01ED5BFF4F80E042
:1005F00090E0A0EAB0E480839183A283B3838E016C
:10060000015C1F4FFE01ED5BFF4F608171818281B4
:10061000938126E636E646E655E40E940A3ADC0176
:10062000CB01F80180839183A283B383FE01FF96FF
:10063000608171818281938120E030E040E85FE356
:100640000E94103C88232CF481E090E09EAF8DAF97
:1006500046C0FE01FF96608171818281938120E016
:100660003FEF4FE757E40E94B03B181664F5FE01D8
:10067000ED5BFF4F608171818281938120E030E0EA
:1006800040E251E40E940A3ADC01CB01BC01CD01F9
:100690000E943438DC01CB019EAF8DAF0FC080E7E4
:1006A00091E09CAF8BAF8BAD9CAD0197F1F79CAF08
:1006B0008BAF8DAD9EAD01979EAF8DAF8DAD9EADD5
:1006C000009769F716C0FE01FF96608171818281F3
:1006D00093810E943438DC01CB019EAF8DAF8DAD8C
:1006E0009EAD9AAF89AF89AD9AAD0197F1F79AAFF8
:1006F00089AFA8E2B0E0E8E2F0E080818B7F8C93E4
:1007000080E090E0A0E8BFE38DAB9EABAFABB8AFAD
:100710006DA97EA98FA998AD26E636E646E655E492
:100720000E940A3ADC01CB0189AB9AABABABBCAB04
:1007300069A97AA98BA99CA920E030E040E85FE391
:100740000E94103C88232CF481E090E098AB8FA7A6
:100750003FC069A97AA98BA99CA920E03FEF4FE788
:1007600057E40E94B03B18164CF56DA97EA98FA9DD
:1007700098AD20E030E040E251E40E940A3ADC010A
:10078000CB01BC01CD010E943438DC01CB0198AB18
:100790008FA70FC080E791E09EA78DA78DA59EA58E
:1007A0000197F1F79EA78DA78FA598A9019798AB00
:1007B0008FA78FA598A9009769F714C069A97AA98E
:1007C0008BA99CA90E943438DC01CB0198AB8FA780
:1007D0008FA598A99CA78BA78BA59CA50197F1F73E
:1007E0009CA78BA7A8E2B0E0E8E2F0E080818E7FD2
:1007F0008C93A8E2B0E0E8E2F0E080818D7F8C93FA
:10080000E8E2F0E080E38083A8E2B0E0E8E2F0E034
:10081000808184608C9380E090E0A0EAB0E48FA3B4
:1008200098A7A9A7BAA76FA178A589A59AA526E632
:1008300036E646E655E40E940A3ADC01CB018BA37A
:100840009CA3ADA3BEA36BA17CA18DA19EA120E022
:1008500030E040E85FE30E94103C88232CF481E004
:1008600090E09AA389A33FC06BA17CA18DA19EA11A
:1008700020E03FEF4FE757E40E94B03B18164CF5DD
:100880006FA178A589A59AA520E030E040E251E467
:100890000E940A3ADC01CB01BC01CD010E94343830
:1008A000DC01CB019AA389A30FC080E791E098A354
:1008B0008F8F8F8D98A10197F1F798A38F8F89A1C2
:1008C0009AA101979AA389A389A19AA1009769F790
:1008D00014C06BA17CA18DA19EA10E943438DC01C3
:1008E000CB019AA389A389A19AA19E8F8D8F8D8D0B
:1008F0009E8D0197F1F79E8F8D8FA8E2B0E0E8E220
:10090000F0E080818B7F8C9380E090E0A0E8BFE3F3
:10091000898F9A8FAB8FBC8F698D7A8D8B8D9C8DD3
:1009200026E636E646E655E40E940A3ADC01CB01AB
:100930008D8B9E8BAF8BB88F6D897E898F89988DBB
:1009400020E030E040E85FE30E94103C88232CF474
:1009500081E090E09C8B8B8B3FC06D897E898F8975
:10096000988D20E03FEF4FE757E40E94B03B181608
:100970004CF5698D7A8D8B8D9C8D20E030E040E2C6
:1009800051E40E940A3ADC01CB01BC01CD010E9476
:100990003438DC01CB019C8B8B8B0FC080E791E05E
:1009A0009A8B898B89899A890197F1F79A8B898B20
:1009B0008B899C8901979C8B8B8B8B899C89009759
:1009C00069F714C06D897E898F89988D0E943438AB
:1009D000DC01CB019C8B8B8B8B899C89988B8F87BF
:1009E0008F8598890197F1F7988B8F87A8E2B0E0FF
:1009F000E8E2F0E080818E7F8C93A8E2B0E0E8E24C
:100A0000F0E080818D7F8C93E8E2F0E080E28083EB
:100A1000A8E2B0E0E8E2F0E0808184608C9380E0BE
:100A200090E0A0EAB0E48B879C87AD87BE876B859A
:100A30007C858D859E8526E636E646E655E40E9451
:100A40000A3ADC01CB018F839887A987BA876F8127
:100A5000788589859A8520E030E040E85FE30E9450
:100A6000103C88232CF481E090E09E838D833FC06E
:100A70006F81788589859A8520E03FEF4FE757E4BD
:100A80000E94B03B18164CF56B857C858D859E8544
:100A900020E030E040E251E40E940A3ADC01CB0160
:100AA000BC01CD010E943438DC01CB019E838D83D3
:100AB0000FC080E791E09C838B838B819C810197A1
:100AC000F1F79C838B838D819E8101979E838D831B
:100AD0008D819E81009769F714C06F817885898523
:100AE0009A850E943438DC01CB019E838D838D81F1
:100AF0009E819A83898389819A810197F1F79A83EC
:100B00008983A8E2B0E0E8E2F0E080818B7F8C93FB
:100B1000C059DF4F0FB6F894DEBF0FBECDBFCF91E7
:100B2000DF911F910F910895DF93CF93CDB7DEB77B
:100B30002E970FB6F894DEBF0FBECDBF80E090E0D9
:100B4000A0E8BFE38B879C87AD87BE876B857C85DC
:100B50008D859E8526E636E646E655E40E940A3AED
:100B6000DC01CB018F839887A987BA876F8178854D
:100B700089859A8520E030E040E85FE30E94103CE0
:100B800088232CF481E090E09E838D833FC06F81A9
:100B9000788589859A8520E03FEF4FE757E40E94EA
:100BA000B03B18164CF56B857C858D859E8520E0C5
:100BB00030E040E251E40E940A3ADC01CB01BC0182
:100BC000CD010E943438DC01CB019E838D830FC0A0
:100BD00080E791E09C838B838B819C810197F1F767
:100BE0009C838B838D819E8101979E838D838D81D4
:100BF0009E81009769F714C06F81788589859A85F1
:100C00000E943438DC01CB019E838D838D819E81CF
:100C10009A83898389819A810197F1F79A838983DD
:100C200088E20E94280681E00E94280686E00E9451
:100C300028068EE00E94280680E80E9428062E964C
:100C40000FB6F894DEBF0FBECDBFCF91DF910895F0
:100C5000DF93CF93CDB7DEB76E970FB6F894DEBFB4
:100C60000FBECDBF8E8F8E8D8D8F8D8D807F8D8FA2
:100C7000A8E2B0E0E8E2F0E080818F708C93A8E217
:100C8000B0E0E8E2F0E090818D8D892B8C93A8E2B2
:100C9000B0E0E8E2F0E080818E7F8C93A8E2B0E0E3
:100CA000E8E2F0E080818D7F8C93A8E2B0E0E8E29A
:100CB000F0E0808184608C9380E090E0A0EAB0E472
:100CC000898F9A8FAB8FBC8F698D7A8D8B8D9C8D20
:100CD00026E636E646E655E40E940A3ADC01CB01F8
:100CE0008D8B9E8BAF8BB88F6D897E898F89988D08
:100CF00020E030E040E85FE30E94103C88232CF4C1
:100D000081E090E09C8B8B8B3FC06D897E898F89C1
:100D1000988D20E03FEF4FE757E40E94B03B181654
:100D20004CF5698D7A8D8B8D9C8D20E030E040E212
:100D300051E40E940A3ADC01CB01BC01CD010E94C2
:100D40003438DC01CB019C8B8B8B0FC080E791E0AA
:100D50009A8B898B89899A890197F1F79A8B898B6C
:100D60008B899C8901979C8B8B8B8B899C890097A5
:100D700069F714C06D897E898F89988D0E943438F7
:100D8000DC01CB019C8B8B8B8B899C89988B8F870B
:100D90008F8598890197F1F7988B8F87A8E2B0E04B
:100DA000E8E2F0E080818B7F8C938E8D8F708E8F48
:100DB0008E8D8295807F8E8FA8E2B0E0E8E2F0E031
:100DC00080818F708C93A8E2B0E0E8E2F0E090813F
:100DD0008E8D892B8C93A8E2B0E0E8E2F0E0808170
:100DE0008E7F8C93A8E2B0E0E8E2F0E080818D7F16
:100DF0008C93A8E2B0E0E8E2F0E0808184608C931C
:100E000080E090E0A0EAB0E48B879C87AD87BE8746
:100E10006B857C858D859E8526E636E646E655E41F
:100E20000E940A3ADC01CB018F839887A987BA8791
:100E30006F81788589859A8520E030E040E85FE31E
:100E40000E94103C88232CF481E090E09E838D83E7
:100E50003FC06F81788589859A8520E03FEF4FE715
:100E600057E40E94B03B18164CF56B857C858D8548
:100E70009E8520E030E040E251E40E940A3ADC0125
:100E8000CB01BC01CD010E943438DC01CB019E8333
:100E90008D830FC080E791E09C838B838B819C8145
:100EA0000197F1F79C838B838D819E8101979E83AF
:100EB0008D838D819E81009769F714C06F8178853D
:100EC00089859A850E943438DC01CB019E838D830D
:100ED0008D819E819A83898389819A810197F1F717
:100EE0009A838983A8E2B0E0E8E2F0E080818B7F1A
:100EF0008C936E960FB6F894DEBF0FBECDBFCF9128
:100F0000DF910895DF93CF93CDB7DEB76E970FB61D
:100F1000F894DEBF0FBECDBF8E8F8E8D8D8F8D8DE1
:100F2000807F8D8FA8E2B0E0E8E2F0E080818F70F2
:100F30008C93A8E2B0E0E8E2F0E090818D8D892BFF
:100F40008C93A8E2B0E0E8E2F0E0808181608C93CD
:100F5000A8E2B0E0E8E2F0E080818D7F8C93A8E227
:100F6000B0E0E8E2F0E0808184608C9380E090E083
:100F7000A0EAB0E4898F9A8FAB8FBC8F698D7A8D90
:100F80008B8D9C8D26E636E646E655E40E940A3AAD
:100F9000DC01CB018D8B9E8BAF8BB88F6D897E89E9
:100FA0008F89988D20E030E040E85FE30E94103C9C
:100FB00088232CF481E090E09C8B8B8B3FC06D8963
:100FC0007E898F89988D20E03FEF4FE757E40E949C
:100FD000B03B18164CF5698D7A8D8B8D9C8D20E079
:100FE00030E040E251E40E940A3ADC01CB01BC014E
:100FF000CD010E943438DC01CB019C8B8B8B0FC060
:1010000080E791E09A8B898B89899A890197F1F71A
:101010009A8B898B8B899C8901979C8B8B8B8B8975
:101020009C89009769F714C06D897E898F89988D96
:101030000E943438DC01CB019C8B8B8B8B899C8983
:10104000988B8F878F8598890197F1F7988B8F8779
:10105000A8E2B0E0E8E2F0E080818B7F8C938E8D97
:101060008F708E8F8E8D8295807F8E8FA8E2B0E0FC
:10107000E8E2F0E080818F708C93A8E2B0E0E8E2D3
:10108000F0E090818E8D892B8C93A8E2B0E0E8E2AD
:10109000F0E0808181608C93A8E2B0E0E8E2F0E0CB
:1010A00080818D7F8C93A8E2B0E0E8E2F0E080815F
:1010B00084608C9380E090E0A0EAB0E48B879C870A
:1010C000AD87BE876B857C858D859E8526E636E659
:1010D00046E655E40E940A3ADC01CB018F839887EB
:1010E000A987BA876F81788589859A8520E030E065
:1010F00040E85FE30E94103C88232CF481E090E0FC
:101100009E838D833FC06F81788589859A8520E095
:101110003FEF4FE757E40E94B03B18164CF56B8544
:101120007C858D859E8520E030E040E251E40E9480
:101130000A3ADC01CB01BC01CD010E943438DC014C
:10114000CB019E838D830FC080E791E09C838B83CE
:101150008B819C810197F1F79C838B838D819E818C
:1011600001979E838D838D819E81009769F714C0BE
:101170006F81788589859A850E943438DC01CB019E
:101180009E838D838D819E819A83898389819A81B3
:101190000197F1F79A838983A8E2B0E0E8E2F0E0F2
:1011A00080818B7F8C936E960FB6F894DEBF0FBE56
:1011B000CDBFCF91DF910895DF93CF93CDB7DEB749
:1011C00080E80E942806CF91DF910895DF93CF93A6
:1011D0000F920F92CDB7DEB79A8389830AC0E98157
:1011E000FA8180810E94820789819A8101969A837F
:1011F0008983E981FA818081882389F70F900F9094
:10120000CF91DF910895DF93CF9300D00F92CDB7A8
:10121000DEB789836A838981282F30E03C832B8362
:101220008B819C8182309105D9F02B813C812330C8
:10123000310534F48B819C818130910561F01EC0B1
:101240002B813C812330310581F08B819C8184305E
:10125000910581F013C08A8181580E9428060EC032
:101260008A8181540E94280609C08A818D560E9475
:10127000280604C08A818D520E9428060F900F9084
:101280000F900F90CF91DF910895DF93CF93CDB75B
:10129000DEB727970FB6F894DEBF0FBECDBF8A83A7
:1012A0006B835D834C833F832E8319828A818823DD
:1012B00019F08B81882319F40E94DC0804C08A810C
:1012C0006B810E9403098E819F818530910519F001
:1012D00089818130A9F48C819D8120E137E2B901B7
:1012E0000E947440CB01C0969093350380933403E1
:1012F00080913403909135030E94820781E08983B5
:101300008E819F818430910519F08981813011F59A
:101310008C819D8128EE33E0B9010E947440CB019D
:10132000909337038093360380913603909137036F
:101330002AE030E0B9010E947440C09690938F0774
:1013400080938E0780918E0790918F070E9482076D
:1013500081E089838E819F818330910519F0898195
:10136000813011F58C819D8124E630E0B9010E9425
:101370007440CB01909337038093360380913603FA
:10138000909137032AE030E0B9010E947440C09682
:101390009093A3038093A2038091A2039091A3034F
:1013A0000E94820781E089838E819F81823091052E
:1013B00019F08981813011F58C819D812AE030E01E
:1013C000B9010E947440CB01909337038093360398
:1013D00080913603909137032AE030E0B9010E94F2
:1013E0007440C09690933C0380933B0380913B03F1
:1013F00090913C030E94820781E089838E819F81C6
:101400008130910519F08981813091F48C819D8121
:101410002AE030E0B9010E947440C09690938D0795
:1014200080938C0780918C0790918D070E94820792
:101430008E819F81863091051CF085E40E94820791
:1014400027960FB6F894DEBF0FBECDBFCF91DF91C8
:101450000895DF93CF93CDB7DEB7A4E2B0E0E4E226
:10146000F0E0808180628C93A5E2B0E0E5E2F0E0FC
:10147000808180628C93CF91DF910895DF93CF9329
:10148000CDB7DEB7A4E2B0E0E4E2F0E080818064B2
:101490008C93A5E2B0E0E5E2F0E0808180648C937B
:1014A000CF91DF910895DF93CF93CDB7DEB7A7E259
:1014B000B0E0E7E2F0E0808188608C93A8E2B0E0E1
:1014C000E8E2F0E08081877F8C93CF91DF910895EF
:1014D000DF93CF93CDB7DEB7ADE2B0E0EDE2F0E061
:1014E00080818F778C93AEE2B0E0EEE2F0E0808115
:1014F00080688C93CF91DF910895DF93CF930F9203
:10150000CDB7DEB71982E6E2F0E080818983898178
:1015100088608983E8E2F0E0898180830F90CF9131
:10152000DF910895DF93CF930F92CDB7DEB7198285
:10153000E6E2F0E0808189838981877F8983E8E220
:10154000F0E0898180830F90CF91DF910895DF9340
:10155000CF93CDB7DEB7E1EDF0E01082E0EDF0E043
:101560001082E2EDF0E086E08083E4EDF0E08FE5CC
:101570008083E5EDF0E01082E1EDF0E088E9808322
:10158000CF91DF9108951F920F920FB60F920090A6
:101590005B000F9211242F938F939F93EF93FF93F0
:1015A000DF93CF93CDB7DEB7E6EDF0E08081809397
:1015B0003D03E6EDF0E080913D03808380913D03A3
:1015C000882379F0809122039091230320913D0399
:1015D000FC01E25CFC4F20830196909323038093EF
:1015E0002203CF91DF91FF91EF919F918F912F91E6
:1015F0000F9000925B000F900FBE0F901F901895F8
:10160000DF93CF93CDB7DEB7A1E2B0E0E1E2F0E047
:1016100080818F608C93A2E2B0E0E2E2F0E0808112
:10162000807F8C93AAE0B1E0EAE0F1E080818861FC
:101630008C93ABE0B1E0EBE0F1E0808188618C93CA
:10164000CF91DF910895DF93CF93CDB7DEB7ADE2B1
:10165000B0E0EDE2F0E080818F7E8C93AEE2B0E00E
:10166000EEE2F0E0808180618C93CF91DF9108956C
:10167000DF93CF93CDB7DEB7ADE2B0E0EDE2F0E0BF
:1016800080818F7D8C93AEE2B0E0EEE2F0E080816D
:1016900080628C93CF91DF910895DF93CF93CDB784
:1016A000DEB70E94290A0E943E0ACF91DF91089579
:1016B000DF93CF93CDB7DEB70E94000B0E94230BC0
:1016C0000E94380B0E94A70C0E94BC0C0E94530A77
:1016D0000E94680ACF91DF910895DF93CF93CDB731
:1016E000DEB7E1E8F0E01082E5E8F0E08CEF80831F
:1016F000E4E8F0E081E08083E9E8F0E083E08083E3
:10170000E8E8F0E08FEF8083EBE8F0E083E08083AF
:10171000EAE8F0E08FEF8083EDE8F0E083E080839B
:10172000ECE8F0E08FEF8083E7E8F0E083E080838F
:10173000E6E8F0E08FEF8083E0E8F0E08BEA80837A
:10174000E2E8F0E01082E1E8F0E08CE08083CF9105
:10175000DF910895DF93CF93CDB7DEB7F894AAE673
:10176000B0E0EAE6F0E0808182608C93ADE3B0E027
:10177000EDE3F0E0808180618C937894CF91DF91EC
:101780000895DF93CF93CDB7DEB7F894AAE6B0E023
:10179000EAE6F0E0808188608C93ADE3B0E0EDE3B1
:1017A000F0E0808180628C937894CF91DF910895EE
:1017B0001F920F920FB60F9211248F939F93AF93A6
:1017C000BF93DF93CF93CDB7DEB780911E03909187
:1017D0001F03A0912003B09121030196A11DB11D0B
:1017E00080931E0390931F03A0932003B0932103C3
:1017F000CF91DF91BF91AF919F918F910F900FBECD
:101800000F901F9018951F920F920FB60F921124F0
:101810008F939F93AF93BF93DF93CF93CDB7DEB7F3
:1018200080911A0390911B03A0911C03B0911D039A
:101830000196A11DB11D80931A0390931B03A093E1
:101840001C03B0931D03CF91DF91BF91AF919F9186
:101850008F910F900FBE0F901F901895DF93CF932D
:101860000F920F92CDB7DEB78A8319828A818F706B
:101870008A83E2E2F0E0808189838981807F8983A5
:1018800099818A81892B8983E2E2F0E089818083D2
:101890000F900F90CF91DF910895DF93CF93CDB745
:1018A000DEB786E00E942E0CCF91DF910895DF9382
:1018B000CF93CDB7DEB789E00E942E0CCF91DF9198
:1018C0000895DF93CF93CDB7DEB785E00E942E0C4D
:1018D000CF91DF910895DF93CF93CDB7DEB78AE044
:1018E0000E942E0CCF91DF910895DF93CF93CDB757
:1018F000DEB784E00E942E0CCF91DF910895DF9334
:10190000CF93CDB7DEB782E00E942E0CCF91DF914E
:101910000895DF93CF93CDB7DEB781E00E942E0C00
:10192000CF91DF910895DF93CF93CDB7DEB788E0F5
:101930000E942E0CCF91DF910895DF93CF93CDB706
:10194000DEB780E00E942E0CCF91DF910895DF93E7
:10195000CF93CDB7DEB7A7E2B0E0E7E2F0E0808159
:10196000876F8C93A8E2B0E0E8E2F0E080818078B5
:101970008C93CF91DF910895DF93CF93CDB7DEB7EE
:10198000E0E3F0E01082E1E3F0E01082E7E0F1E074
:101990001082E8E0F1E01082CF91DF910895DF93AB
:1019A000CF93CDB7DEB7E1E2F1E01082E5E2F1E0FE
:1019B0008FEF8083E4E2F1E081E08083E9E2F1E00F
:1019C0001082E8E2F1E08FEF8083EBE2F1E0108239
:1019D000EAE2F1E08FEF8083EDE2F1E01082ECE2E9
:1019E000F1E08FEF8083E0E2F1E089EA8083E1E2D9
:1019F000F1E08BE08083CF91DF910895DF93CF9367
:101A0000CDB7DEB7EAE7F0E01082EBE7F0E0108256
:101A1000ECE7F0E080E28083E0E5F0E080E88083BE
:101A2000EAE7F0E086E88083CF91DF910895DF93C5
:101A3000CF930F920F92CDB7DEB78A838A81883019
:101A400020F0EBE7F0E088E080838A8187708A836A
:101A5000ECE7F0E08A8180628083AAE7B0E0EAE701
:101A6000F0E0808180648C93EAE7F0E08081882F49
:101A700090E0807190700097B9F3E9E7F0E0808121
:101A80008983AAE7B0E0EAE7F0E0808180618C9387
:101A9000EBE7F0E0108289810F900F90CF91DF91FA
:101AA0000895DF93CF9300D0CDB7DEB789836A83E3
:101AB0004B838B810E94170D8093380380913803EC
:101AC000282F30E089816A81A90123E030E00E945B
:101AD00045090F900F900F90CF91DF910895DF93FC
:101AE000CF93CDB7DEB72C970FB6F894DEBF0FBEFD
:101AF000CDBF9A87898780E090E0A0E0B0E08D8339
:101B00009E83AF83B88719821A821B821C828985C3
:101B10009A85CC01A0E0B0E0BC01CD010E94943CCC
:101B2000DC01CB01BC01CD0128E431EE42E850E4F8
:101B30000E94043BDC01CB018D839E83AF83B88779
:101B40006D817E818F8198850E943438DC01CB01C4
:101B5000CC01A0E0B0E089839A83AB83BC83109270
:101B60001E0310921F031092200310922103109263
:101B70001A0310921B0310921C0310921D03209154
:101B80001E0330911F0340912003509121031C86B6
:101B900089819A81AB81BC81281739074A075B0785
:101BA00010F081E08C8720911A0330911B03409143
:101BB0001C0350911D031B8689819A81AB81BC81D6
:101BC000281739074A075B0710F091E09B878C853F
:101BD0009B85892B882399F20E949D0C2C960FB629
:101BE000F894DEBF0FBECDBFCF91DF910895DF9394
:101BF000CF93CDB7DEB72A970FB6F894DEBF0FBEEE
:101C0000CDBF9A87898780E090E0A0E0B0E08D8327
:101C10009E83AF83B88719821A821B821C828985B2
:101C20009A85CC01A0E0B0E0BC01CD010E94943CBB
:101C3000DC01CB01BC01CD0125EE30ED4AEA50E4D8
:101C40000E94043BDC01CB018D839E83AF83B88768
:101C50006D817E818F8198850E943438DC01CB01B3
:101C600089839A83AB83BC8310921E0310921F0357
:101C7000109220031092210320911E0330911F0324
:101C8000409120035091210389819A81AB81BC81CD
:101C900082179307A407B50778F70E949D0C2A9630
:101CA0000FB6F894DEBF0FBECDBFCF91DF91089580
:101CB000DF93CF930F920F92CDB7DEB789836A83FC
:101CC000E8E2F1E089818083EAE2F1E08A818083C1
:101CD0000F900F90CF91DF910895DF93CF930F92E4
:101CE0000F92CDB7DEB79A8389830E944D0C89810C
:101CF0009A810E94F70D0F900F90CF91DF91089578
:101D0000DF93CF930F920F92CDB7DEB79A8389837B
:101D10000E94570C89819A810E94F70D0F900F90B5
:101D2000CF91DF910895DF93CF930F920F92CDB7AC
:101D3000DEB79A8389830E94610C89819A810E940F
:101D40006F0D0F900F90CF91DF910895DF93CF9398
:101D50000F920F92CDB7DEB79A8389830E946B0CE6
:101D600089819A810E946F0D0F900F90CF91DF9122
:101D70000895DF93CF930F920F92CDB7DEB79A837A
:101D800089830E94750C89819A81880F991F9A8393
:101D9000898389819A810E946F0D0F900F90CF9156
:101DA000DF910895DF93CF930F920F92CDB7DEB7F7
:101DB0009A8389830E947F0C89819A81880F991F59
:101DC0009A83898389819A810E946F0D0F900F9069
:101DD000CF91DF910895DF93CF930F920F92CDB7FC
:101DE000DEB79A8389830E94890C89819A81880F42
:101DF000991F9A83898389819A810E946F0D0F9020
:101E00000F90CF91DF910895DF93CF930F920F92B0
:101E1000CDB7DEB79A8389830E94930C89819A811A
:101E2000880F991F9A83898389819A810E946F0DF7
:101E30000F900F90CF91DF910895DF93CF93CDB79F
:101E4000DEB7F8940E944D0B0E946D0B7894CF91F1
:101E5000DF910895DF93CF93CDB7DEB7F8940E945A
:101E6000580B0E94AA0B0E94C10B0E94FE0C0E94FC
:101E7000CF0C0E94A70A0E94580B7894CF91DF9153
:101E800008950F931F93DF93CF9300D00F920F927B
:101E9000CDB7DEB78D8380E090E0A0E0B0E089832D
:101EA0009A83AB83BC838D81882F90E0A0E0B0E063
:101EB000BC01CD010E94943CDC01CB01BC01CD01F1
:101EC0002DEC3CEC4CEC5EE30E94043BDC01CB01CE
:101ED000BC01CD0120E030E04CE052E40E94DD394D
:101EE000DC01CB0189839A83AB83BC83E9E8F0E012
:101EF000108208E810E069817A818B819C810E94C0
:101F00003438DC01CB01F80180830F900F900F90E3
:101F10000F900F90CF91DF911F910F9108950F9324
:101F20001F93DF93CF9300D00F920F92CDB7DEB700
:101F30008D8380E090E0A0E0B0E089839A83AB835A
:101F4000BC838D81882F90E0A0E0B0E0BC01CD0182
:101F50000E94943CDC01CB01BC01CD0126E636E6B3
:101F600046E65FE30E94043BDC01CB01BC01CD01EE
:101F700020E030E040E252E40E94DD39DC01CB0198
:101F800089839A83AB83BC83EBE8F0E010820AE894
:101F900010E069817A818B819C810E943438DC0158
:101FA000CB01F80180830F900F900F900F900F904E
:101FB000CF91DF911F910F910895DF93CF93CDB70C
:101FC000DEB7E9E8F0E083E08083E8E8F0E08FEF57
:101FD0008083CF91DF910895DF93CF93CDB7DEB7A4
:101FE000EBE8F0E083E08083EAE8F0E08FEF8083C5
:101FF000CF91DF910895DF93CF93CDB7DEB7A89748
:102000000FB6F894DEBF0FBECDBF9C8F8B8F7E8F37
:102010006D8F58A34F8F8B8D9C8D25E030E0B901DB
:102020000E9488409A8F898F8B8D9C8D25E030E0AF
:10203000B9010E948840CB01988F8F8B84E090E09B
:102040000E94023F9A838983898D9A8D01969E8B87
:102050008D8B8D899E899A8B898B898D9A8D9E8790
:102060008D878F89988D9C8B8B8B8F89988D01960E
:10207000988B8F878F8598899C878B872D8D3E8D38
:10208000898D9A8DA901481B590BCA019E838D83A6
:102090008D819E8199233CF48D819E8190958195BF
:1020A0009F4F9E838D832D8D3E8D8D899E89A901A5
:1020B000481B590BCA019C838B838B819C8199237C
:1020C0003CF48B819C81909581959F4F9C838B8361
:1020D0002D813E818B819C81821793070CF03FC03C
:1020E0008F8D98A12B893C89821B930B98A78FA376
:1020F0008FA198A599233CF42FA138A5309521955F
:102100003F4F38A72FA38F8D98A12F853889821B29
:10211000930B9EA38DA34DA15EA155233CF48DA1ED
:102120009EA1909581959F4F9EA38DA32FA138A529
:102130004DA15EA1421753074CF48D899E899A8761
:1021400089878F85988998878F8347C08D899E89D5
:102150009A8789878B899C8998878F833EC08F8DCA
:1021600098A12F89388D821B930B9CA38BA38BA1E5
:102170009CA199233CF42BA13CA1309521953F4F84
:102180003CA32BA38F8D98A12B853C85821B930BA1
:102190009AA389A349A15AA155233CF489A19AA1E4
:1021A000909581959F4F9AA389A32BA13CA149A10A
:1021B0005AA1421753074CF4898D9A8D9A878987C3
:1021C0008B859C8598878F8308C0898D9A8D9A8787
:1021D00089878F89988D98878F83E981FA8189858E
:1021E0009A859183808389819A81FC0132968F81BF
:1021F00098859183808389819A81A8960FB6F894F7
:10220000DEBF0FBECDBFCF91DF910895DF93CF9397
:102210000F920F92CDB7DEB79A83898389819A8115
:102220000E945A2E0F900F90CF91DF910895DF9367
:10223000CF93CDB7DEB72E970FB6F894DEBF0FBEA3
:10224000CDBF0E942A0F80EA90E00E94A60E82E095
:102250000E94170D8093180380911803853228F48B
:1022600082E090E00E94A60EF2CF0E949D0C80E0DA
:1022700090E0A8ECB2E48B879C87AD87BE876B8526
:102280007C858D859E8526E636E646E655E40E94E9
:102290000A3ADC01CB018F839887A987BA876F81BF
:1022A000788589859A8520E030E040E85FE30E94E8
:1022B000103C88232CF481E090E09E838D833FC006
:1022C0006F81788589859A8520E03FEF4FE757E455
:1022D0000E94B03B18164CF56B857C858D859E85DC
:1022E00020E030E040E251E40E940A3ADC01CB01F8
:1022F000BC01CD010E943438DC01CB019E838D836B
:102300000FC080E791E09C838B838B819C81019738
:10231000F1F79C838B838D819E8101979E838D83B2
:102320008D819E81009769F714C06F8178858985BA
:102330009A850E943438DC01CB019E838D838D8188
:102340009E819A83898389819A810197F1F79A8383
:102350008983809102029091030202969093030276
:1023600080930202809102029091030288309105CD
:1023700031F08091020290910302009731F484E0E1
:1023800090E0909303028093020280910202909168
:1023900003022E960FB6F894DEBF0FBECDBFCF91CD
:1023A000DF910895DF93CF93CDB7DEB76E970FB669
:1023B000F894DEBF0FBECDBF9E8F8D8F0E942A0F77
:1023C0008CE090E00E946D0E0E949D0C80E090E0F9
:1023D000A8ECB2E4898F9A8FAB8FBC8F698D7A8D10
:1023E0008B8D9C8D26E636E646E655E40E940A3A39
:1023F000DC01CB018D8B9E8BAF8BB88F6D897E8975
:102400008F89988D20E030E040E85FE30E94103C27
:1024100088232CF481E090E09C8B8B8B3FC06D89EE
:102420007E898F89988D20E03FEF4FE757E40E9427
:10243000B03B18164CF5698D7A8D8B8D9C8D20E004
:1024400030E040E251E40E940A3ADC01CB01BC01D9
:10245000CD010E943438DC01CB019C8B8B8B0FC0EB
:1024600080E791E09A8B898B89899A890197F1F7A6
:102470009A8B898B8B899C8901979C8B8B8B8B8901
:102480009C89009769F714C06D897E898F89988D22
:102490000E943438DC01CB019C8B8B8B8B899C890F
:1024A000988B8F878F8598890197F1F7988B8F8705
:1024B0008D8D9E8D8130910531F58BE490E00E94E9
:1024C000D20E82E00E94170D8093180383E00E94D1
:1024D000170D8093170381E00E94170D8093190355
:1024E00080911803803228F482E090E00E94D20E9E
:1024F000E8CF80910202909103020196909303022B
:10250000809302021BC08BE490E00E94B90E82E02F
:102510000E94170D8093180380911803803228F4CD
:1025200082E090E00E94B90EF2CF80910202909179
:102530000302019790930302809302020E949D0C74
:1025400080E090E0A8ECB2E48B879C87AD87BE87E3
:102550006B857C858D859E8526E636E646E655E4C8
:102560000E940A3ADC01CB018F839887A987BA873A
:102570006F81788589859A8520E030E040E85FE3C7
:102580000E94103C88232CF481E090E09E838D8390
:102590003FC06F81788589859A8520E03FEF4FE7BE
:1025A00057E40E94B03B18164CF56B857C858D85F1
:1025B0009E8520E030E040E251E40E940A3ADC01CE
:1025C000CB01BC01CD010E943438DC01CB019E83DC
:1025D0008D830FC080E791E09C838B838B819C81EE
:1025E0000197F1F79C838B838D819E8101979E8358
:1025F0008D838D819E81009769F714C06F817885E6
:1026000089859A850E943438DC01CB019E838D83B5
:102610008D819E819A83898389819A810197F1F7BF
:102620009A838983809102029091030288309105F8
:1026300031F08091020290910302009731F484E01E
:1026400090E09093030280930202809102029091A5
:1026500003026E960FB6F894DEBF0FBECDBFCF91CA
:10266000DF910895DF93CF930F920F92CDB7DEB72E
:102670009A83898389819A81837090700097B9F4D5
:1026800010922B0310922A0381E090E090930102B4
:102690008093000210922703109226038091260354
:1026A0009091270390932903809328036EC089811A
:1026B0009A8124E030E0B9010E948840823091057F
:1026C000D9F4109229031092280380912803909145
:1026D000290390930102809300028091000290915F
:1026E000010290932B0380932A0381E090E0909362
:1026F00027038093260349C089819A8124E030E032
:10270000B9010E94884081309105D9F481E090E0C0
:10271000909329038093280310922B0310922A038D
:1027200080912A0390912B03909327038093260393
:1027300080912603909127039093010280930002D9
:1027400024C089819A8124E030E0B9010E94884048
:1027500083309105D1F481E090E090932B03809336
:102760002A03109229031092280380912803909144
:102770002903909327038093260380912603909149
:10278000270390930102809300020F900F90CF9146
:10279000DF910895DF93CF93CDB7DEB728970FB6BB
:1027A000F894DEBF0FBECDBF9A8389837C836B8391
:1027B0005E834D8338872F83809126039091270372
:1027C00081309105C1F48091280390912903909361
:1027D0002D0380932C0380912A0390912B039093D7
:1027E00029038093280380912C0390912D039093CB
:1027F0002B0380932A0329813A818D819E8128179A
:10280000390709F085C02F8138858B819C8182171B
:102810009307DCF58091280390912903813091057D
:1028200039F080912A0390912B038130910589F42E
:1028300080912A0390912B030E94D211909303025E
:102840008093020280910202909103020E9432134F
:1028500013C080912603909127038130910561F484
:102860000E9417119093030280930202809102024A
:10287000909103020E9432138F8198852B813C81B5
:10288000821B930B0E940611D8C02F8138858B8143
:102890009C81281739070CF0D0C0809128039091B3
:1028A00029038130910539F080912A0390912B03FF
:1028B0008130910589F480912803909129030E9429
:1028C000D2119093030280930202809102029091B0
:1028D00003020E94321313C0809100029091010202
:1028E0008130910561F40E94171190930302809347
:1028F000020280910202909103020E9432138B81A6
:102900009C812F813885821B930B0E94061195C0F4
:102910002D813E8189819A81821793070CF047C0EF
:1029200080912803909129030097B9F480912A039C
:1029300090912B03009789F48091000290910102FD
:102940000E94D211909303028093020280910202AE
:10295000909103020E94321313C080912A03909138
:102960002B038130910561F40E94171190930302AB
:102970008093020280910202909103020E9432131E
:102980002D813E8189819A81A901481B590BCA0179
:102990000E9406118D819E812B813C814D815E813B
:1029A000EF81F885B9019F010E94CA1346C080914A
:1029B0002803909129030097B9F480912A039091FC
:1029C0002B03009789F480912603909127030E949E
:1029D000D21190930302809302028091020290919F
:1029E00003020E94321313C080912803909129039F
:1029F0008130910561F40E94171190930302809336
:102A0000020280910202909103020E9432132981F6
:102A10003A818D819E81A901481B590BCA010E94F0
:102A200006118D819E812B813C814D815E81EF81DC
:102A3000F885B9019F010E94CA1328960FB6F89431
:102A4000DEBF0FBECDBFCF91DF910895DF93CF934F
:102A5000CDB7DEB72C970FB6F894DEBF0FBECDBF53
:102A600098878F837A8769875C874B878F81988562
:102A700025E030E0B9010E9488409E838D838F81DC
:102A8000988525E030E0B9010E948840CB019C8305
:102A90008B831A82198229853A858D819E81281718
:102AA000390709F07BC02B853C858B819C812817D9
:102AB0003907D1F581E090E09A8389838091000203
:102AC000909101028130910539F48091000290913A
:102AD00001020E942D2CDCC08091280390912903D3
:102AE0008130910539F480912A0390912B030E9443
:102AF0002D2CCEC080912A0390912B030E94D211DD
:102B0000909303028093020280910202909103024B
:102B10000E9432138F81988529853A854B855C8583
:102B2000B9010E942615B4C084E090E09A8389839D
:102B300080912603909127038130910539F480918B
:102B40000002909101020E942D2CA2C080912803C6
:102B5000909129038130910539F480912803909157
:102B600029030E942D2C94C0809128039091290361
:102B70000E94D2119093030280930202809102027C
:102B8000909103020E9432138F81988529853A859E
:102B90004B855C85B9010E9426157AC02B853C8542
:102BA0008B819C8128173907D1F582E090E09A83C8
:102BB000898380912A0390912B038130910539F408
:102BC00080912A0390912B030E942D2C61C080914B
:102BD0000002909101028130910539F48091260321
:102BE000909127030E942D2C53C080912603909131
:102BF00027030E94D21190930302809302028091D6
:102C00000202909103020E9432138F8198852985D8
:102C10003A854B855C85B9010E94261539C083E051
:102C200090E09A83898380912603909127038130D5
:102C3000910539F480912603909127030E942D2C51
:102C400027C080912A0390912B038130910539F49C
:102C500080912803909129030E942D2C19C0809106
:102C60002603909127030E94D21190930302809330
:102C7000020280910202909103020E9432138F811E
:102C8000988529853A854B855C85B9010E94261572
:102C90002C960FB6F894DEBF0FBECDBFCF91DF915B
:102CA0000895DF93CF93CDB7DEB76E970FB6F89444
:102CB000DEBF0FBECDBF9E8F8D8F0E942A0F8DEA83
:102CC00090E00E946D0E0E949D0C80E090E0A8ECC8
:102CD000B2E4898F9A8FAB8FBC8F698D7A8D8B8D83
:102CE0009C8D26E636E646E655E40E940A3ADC016B
:102CF000CB018D8B9E8BAF8BB88F6D897E898F8931
:102D0000988D20E030E040E85FE30E94103C88238B
:102D10002CF481E090E09C8B8B8B3FC06D897E8989
:102D20008F89988D20E03FEF4FE757E40E94B03B3A
:102D300018164CF5698D7A8D8B8D9C8D20E030E0D6
:102D400040E251E40E940A3ADC01CB01BC01CD0112
:102D50000E943438DC01CB019C8B8B8B0FC080E749
:102D600091E09A8B898B89899A890197F1F79A8BDF
:102D7000898B8B899C8901979C8B8B8B8B899C89F8
:102D8000009769F714C06D897E898F89988D0E949C
:102D90003438DC01CB019C8B8B8B8B899C89988B85
:102DA0008F878F8598890197F1F7988B8F878D8D05
:102DB0009E8D81309105E1F489E690E00E94040F38
:102DC00082E00E94170D80931803809118038034CD
:102DD00028F482E090E00E94040FF2CF809102027A
:102DE00090910302019690930302809302021BC00C
:102DF00080E590E00E94EB0E82E00E94170D809328
:102E0000180380911803803228F482E090E00E9439
:102E1000EB0EF2CF80910202909103020197909302
:102E20000302809302020E949D0C80E090E0A8ECD7
:102E3000B2E48B879C87AD87BE876B857C858D854B
:102E40009E8526E636E646E655E40E940A3ADC010F
:102E5000CB018F839887A987BA876F817885898509
:102E60009A8520E030E040E85FE30E94103C882330
:102E70002CF481E090E09E838D833FC06F81788544
:102E800089859A8520E03FEF4FE757E40E94B03BE9
:102E900018164CF56B857C858D859E8520E030E08D
:102EA00040E251E40E940A3ADC01CB01BC01CD01B1
:102EB0000E943438DC01CB019E838D830FC080E7F4
:102EC00091E09C838B838B819C810197F1F79C839C
:102ED0008B838D819E8101979E838D838D819E81C1
:102EE000009769F714C06F81788589859A850E945B
:102EF0003438DC01CB019E838D838D819E819A8342
:102F0000898389819A810197F1F79A8389838091D6
:102F10000202909103028830910531F08091020203
:102F200090910302009731F484E090E090930302C3
:102F30008093020280910202909103026E960FB676
:102F4000F894DEBF0FBECDBFCF91DF9108950F93F0
:102F50001F93DF93CF93CDB7DEB7CA58D1400FB6DA
:102F6000F894DEBF0FBECDBFFE01E757FE4F918341
:102F700080830E942A0FFE01E757FE4F0190F081E7
:102F8000E02D8081813409F09BC7809126039091C8
:102F900027038130910541F0809100029091010258
:102FA0008130910509F014C6FE01E757FE4F80817C
:102FB0009181FC0131968081813309F488C180912F
:102FC0002603909127030E94511690930302809349
:102FD000020280910202909103020E94321389E161
:102FE00090E00E946D0E0E949D0CFE01EB57FE4F7B
:102FF00080E090E0A8E4B2E480839183A283B3836D
:103000008E010F571E4FFE01EB57FE4F60817181FD
:103010008281938126E636E646E655E40E940A3A26
:10302000DC01CB01F80180839183A283B383FE018D
:10303000EF57FE4F608171818281938120E030E003
:1030400040E85FE30E94103C882344F4FE01E1580D
:10305000FE4F81E090E09183808364C0FE01EF57D2
:10306000FE4F608171818281938120E03FEF4FE7C5
:1030700057E40E94B03B18160CF043C0FE01EB571A
:10308000FE4F608171818281938120E030E040E2D7
:1030900051E40E940A3ADC01CB018E0101581E4F17
:1030A000BC01CD010E943438DC01CB01F8019183D1
:1030B00080831FC0FE01E358FE4F80E791E09183BB
:1030C0008083FE01E358FE4F808191810197F1F7E3
:1030D000FE01E358FE4F91838083DE01A158BE4F6D
:1030E000FE01E158FE4F80819181019711969C93DA
:1030F0008E93FE01E158FE4F808191810097D1F6B9
:1031000027C08E0101581E4FFE01EF57FE4F608110
:103110007181828193810E943438DC01CB01F801F6
:1031200091838083DE01A558BE4FFE01E158FE4F1A
:10313000808191818D939C93FE01E558FE4F8081A3
:1031400091810197F1F7FE01E558FE4F918380834D
:103150000E94382F85E590E00E94800E0E949D0C11
:10316000FE01E958FE4F80E090E0A8E4B2E48083DD
:103170009183A283B3838E010D581E4FFE01E9583F
:10318000FE4F608171818281938126E636E646E6B4
:1031900055E40E940A3ADC01CB01F8018083918357
:1031A000A283B383FE01ED58FE4F6081718182815D
:1031B000938120E030E040E85FE30E94103C8823E8
:1031C00044F4FE01EF58FE4F81E090E0918380834C
:1031D00065C0FE01ED58FE4F60817181828193814F
:1031E00020E03FEF4FE757E40E94B03B18160CF089
:1031F00044C0FE01E958FE4F608171818281938154
:1032000020E030E040E251E40E940A3ADC01CB01C8
:103210008E010F581E4FBC01CD010E943438DC01D5
:10322000CB01F801918380831FC0FE01E159FE4F5D
:1032300080E791E091838083FE01E159FE4F808118
:1032400091810197F1F7FE01E159FE4F918380834F
:10325000DE01AF58BE4FFE01EF58FE4F80819181D5
:10326000019711969C938E93FE01EF58FE4F80813B
:1032700091810097D1F60C94212C8E010F581E4F8E
:10328000FE01ED58FE4F60817181828193810E9421
:103290003438DC01CB01F80191838083DE01A3592E
:1032A000BE4FFE01EF58FE4F8081918111969C9395
:1032B0008E93FE01E359FE4F808191810197F1F7D2
:1032C000FE01E359FE4F918380830C94212CFE0173
:1032D000E757FE4F80819181FC01319680818633D2
:1032E00009F0C7C08FE090E00E94040F82E390E0F5
:1032F0000E946D0E0E94382F83E290E00E94800EA3
:103300000E949D0CFE01E759FE4F80E090E0A8EC82
:10331000B2E480839183A283B3838E010B591E4F45
:10332000FE01E759FE4F608171818281938126E61B
:1033300036E646E655E40E940A3ADC01CB01F80184
:1033400080839183A283B383FE01EB59FE4F60819A
:1033500071818281938120E030E040E85FE30E9448
:10336000103C882344F4FE01ED59FE4F81E090E0CB
:103370009183808365C0FE01EB59FE4F60817181AE
:103380008281938120E03FEF4FE757E40E94B03BFA
:1033900018160CF044C0FE01E759FE4F60817181A0
:1033A0008281938120E030E040E251E40E940A3AB9
:1033B000DC01CB018E010D591E4FBC01CD010E94D5
:1033C0003438DC01CB01F801918380831FC0FE01FA
:1033D000EF59FE4F80E791E091838083FE01EF5922
:1033E000FE4F808191810197F1F7FE01EF59FE4F69
:1033F00091838083DE01AD59BE4FFE01ED59FE4F32
:1034000080819181019711969C938E93FE01ED59D5
:10341000FE4F808191810097D1F60C94212C8E0172
:103420000D591E4FFE01EB59FE4F60817181828163
:1034300093810E943438DC01CB01F80191838083B1
:10344000DE01A15ABE4FFE01ED59FE4F80819181F0
:1034500011969C938E93FE01E15AFE4F80819181DB
:103460000197F1F7FE01E15AFE4F918380830C949E
:10347000212CFE01E757FE4F80819181FC0131969E
:103480008081813311F00C94212C8EE190E00E9418
:103490006D0E0E949D0CFE01E55AFE4F80E090E00B
:1034A000A8E4B2E480839183A283B3838E01095A96
:1034B0001E4FFE01E55AFE4F60817181828193812A
:1034C00026E636E646E655E40E940A3ADC01CB01E0
:1034D000F80180839183A283B383FE01E95AFE4FF2
:1034E000608171818281938120E030E040E85FE378
:1034F0000E94103C882344F4FE01EB5AFE4F81E009
:1035000090E09183808364C0FE01E95AFE4F6081A0
:1035100071818281938120E03FEF4FE757E40E9461
:10352000B03B18160CF043C0FE01E55AFE4F608117
:1035300071818281938120E030E040E251E40E9479
:103540000A3ADC01CB018E010B5A1E4FBC01CD01A2
:103550000E943438DC01CB01F801918380831FC0C5
:10356000FE01ED5AFE4F80E791E091838083FE01DA
:10357000ED5AFE4F808191810197F1F7FE01ED5ADE
:10358000FE4F91838083DE01AB5ABE4FFE01EB5AA2
:10359000FE4F80819181019711969C938E93FE013D
:1035A000EB5AFE4F808191810097D1F627C08E01A2
:1035B0000B5A1E4FFE01E95AFE4F608171818281D4
:1035C00093810E943438DC01CB01F8019183808320
:1035D000DE01AF5ABE4FFE01EB5AFE4F8081918152
:1035E0008D939C93FE01EF5AFE4F8081918101974C
:1035F000F1F7FE01EF5AFE4F9183808384E690E05D
:103600000E94EB0E0E949D0CFE01E35BFE4F80E0EA
:1036100090E0A8E4B2E480839183A283B3838E0117
:10362000075B1E4FFE01E35BFE4F6081718182816B
:10363000938126E636E646E655E40E940A3ADC0126
:10364000CB01F80180839183A283B383FE01E75B02
:10365000FE4F608171818281938120E030E040E8FB
:103660005FE30E94103C882344F4FE01E95BFE4FB7
:1036700081E090E09183808364C0FE01E75BFE4FB0
:10368000608171818281938120E03FEF4FE757E4B1
:103690000E94B03B18160CF043C0FE01E35BFE4FE6
:1036A000608171818281938120E030E040E251E4C9
:1036B0000E940A3ADC01CB018E01095B1E4FBC015E
:1036C000CD010E943438DC01CB01F8019183808365
:1036D0001FC0FE01EB5BFE4F80E791E0918380838A
:1036E000FE01EB5BFE4F808191810197F1F7FE01B6
:1036F000EB5BFE4F91838083DE01A95BBE4FFE0131
:10370000E95BFE4F80819181019711969C938E9386
:10371000FE01E95BFE4F808191810097D1F627C0C1
:103720008E01095B1E4FFE01E75BFE4F60817181D8
:10373000828193810E943438DC01CB01F8019183AE
:103740008083DE01AD5BBE4FFE01E95BFE4F8081F1
:1037500091818D939C93FE01ED5BFE4F8081918161
:103760000197F1F7FE01ED5BFE4F9183808384E1C9
:1037700090E00E946D0E0E94382F84E190E00E943C
:10378000800E0E949D0CFE01E15CFE4F80E090E007
:10379000A8ECB2E480839183A283B3838E01055C9D
:1037A0001E4FFE01E15CFE4F608171818281938139
:1037B00026E636E646E655E40E940A3ADC01CB01ED
:1037C000F80180839183A283B383FE01E55CFE4F01
:1037D000608171818281938120E030E040E85FE385
:1037E0000E94103C882344F4FE01E75CFE4F81E018
:1037F00090E09183808364C0FE01E55CFE4F6081B0
:1038000071818281938120E03FEF4FE757E40E946E
:10381000B03B18160CF043C0FE01E15CFE4F608126
:1038200071818281938120E030E040E251E40E9486
:103830000A3ADC01CB018E01075C1E4FBC01CD01B1
:103840000E943438DC01CB01F801918380831FC0D2
:10385000FE01E95CFE4F80E791E091838083FE01E9
:10386000E95CFE4F808191810197F1F7FE01E95CEF
:10387000FE4F91838083DE01A75CBE4FFE01E75CB3
:10388000FE4F80819181019711969C938E93FE014A
:10389000E75CFE4F808191810097D1F627C08E01B1
:1038A000075C1E4FFE01E55CFE4F608171818281E5
:1038B00093810E943438DC01CB01F801918380832D
:1038C000DE01AB5CBE4FFE01E75CFE4F8081918163
:1038D0008D939C93FE01EB5CFE4F8081918101975B
:1038E000F1F7FE01EB5CFE4F918380838EE590E063
:1038F0000E94D20E0E949D0CFE01EF5CFE4F80E004
:1039000090E0A8E4B2E480839183A283B3838E0124
:10391000035D1E4FFE01EF5CFE4F6081718182816D
:10392000938126E636E646E655E40E940A3ADC0133
:10393000CB01F80180839183A283B383FE01E35D11
:10394000FE4F608171818281938120E030E040E808
:103950005FE30E94103C882344F4FE01E55DFE4FC6
:1039600081E090E09183808364C0FE01E35DFE4FBF
:10397000608171818281938120E03FEF4FE757E4BE
:103980000E94B03B18160CF043C0FE01EF5CFE4FE6
:10399000608171818281938120E030E040E251E4D6
:1039A0000E940A3ADC01CB018E01055D1E4FBC016D
:1039B000CD010E943438DC01CB01F8019183808372
:1039C0001FC0FE01E75DFE4F80E791E09183808399
:1039D000FE01E75DFE4F808191810197F1F7FE01C5
:1039E000E75DFE4F91838083DE01A55DBE4FFE0142
:1039F000E55DFE4F80819181019711969C938E9396
:103A0000FE01E55DFE4F808191810097D1F627C0D0
:103A10008E01055D1E4FFE01E35DFE4F60817181E9
:103A2000828193810E943438DC01CB01F8019183BB
:103A30008083DE01A95DBE4FFE01E55DFE4F808102
:103A400091818D939C93FE01E95DFE4F8081918170
:103A50000197F1F7FE01E95DFE4F918380830E949B
:103A60009D0CFE01ED5DFE4F80E090E0A8E4B2E425
:103A700080839183A283B3838E01015E1E4FFE017A
:103A8000ED5DFE4F608171818281938126E636E68D
:103A900046E655E40E940A3ADC01CB01F801808336
:103AA0009183A283B383FE01E15EFE4F6081718149
:103AB0008281938120E030E040E85FE30E94103C87
:103AC000882344F4FE01E35EFE4F81E090E09183A1
:103AD000808365C0FE01E15EFE4F6081718182815D
:103AE000938120E03FEF4FE757E40E94B03B181668
:103AF0000CF044C0FE01ED5DFE4F6081718182815A
:103B0000938120E030E040E251E40E940A3ADC0177
:103B1000CB018E01035E1E4FBC01CD010E943438E3
:103B2000DC01CB01F801918380831FC0FE01E55EBB
:103B3000FE4F80E791E091838083FE01E55EFE4FBA
:103B4000808191810197F1F7FE01E55EFE4F91833F
:103B50008083DE01A35EBE4FFE01E35EFE4F8081E7
:103B60009181019711969C938E93FE01E35EFE4F27
:103B7000808191810097D1F60C94212C8E01035EF7
:103B80001E4FFE01E15EFE4F608171818281938153
:103B90000E943438DC01CB01F80191838083DE017F
:103BA000A75EBE4FFE01E35EFE4F808191811196BC
:103BB0009C938E93FE01E75EFE4F80819181019779
:103BC000F1F7FE01E75EFE4F918380830C94212C78
:103BD00082E390E00E946D0E0E949D0CFE01EB5E60
:103BE000FE4F80E090E0A8E4B2E480839183A2835A
:103BF000B3838E010F5E1E4FFE01EB5EFE4F6081B0
:103C000071818281938126E636E646E655E40E947C
:103C10000A3ADC01CB01F80180839183A283B3834C
:103C2000FE01EF5EFE4F608171818281938120E011
:103C300030E040E85FE30E94103C882344F4FE013A
:103C4000E15FFE4F81E090E09183808364C0FE01DC
:103C5000EF5EFE4F608171818281938120E03FEFB2
:103C60004FE757E40E94B03B18160CF043C0FE012A
:103C7000EB5EFE4F608171818281938120E030E0B4
:103C800040E251E40E940A3ADC01CB018E01015F5F
:103C90001E4FBC01CD010E943438DC01CB01F8017C
:103CA000918380831FC0FE01E35FFE4F80E791E0B8
:103CB00091838083FE01E35FFE4F808191810197B4
:103CC000F1F7FE01E35FFE4F91838083DE01A15F88
:103CD000BE4FFE01E15FFE4F8081918101971196F9
:103CE0009C938E93FE01E15FFE4F8081918100974E
:103CF000D1F627C08E01015F1E4FFE01EF5EFE4F21
:103D000060817181828193810E943438DC01CB0112
:103D1000F80191838083DE01A55FBE4FFE01E15F64
:103D2000FE4F808191818D939C93FE01E55FFE4F54
:103D3000808191810197F1F7FE01E55FFE4F91834C
:103D400080830E94382F87E390E00E94800E0E94BB
:103D50009D0CFE01E95FFE4F80E090E0A8E4B2E434
:103D600080839183A283B3838E010D5F1E4FFE017A
:103D7000E95FFE4F608171818281938126E636E69C
:103D800046E655E40E940A3ADC01CB01F801808343
:103D90009183A283B383FE01ED5FFE4F6081718149
:103DA0008281938120E030E040E85FE30E94103C94
:103DB000882344F4FE01EF5FFE4F81E090E09183A1
:103DC000808365C0FE01ED5FFE4F6081718182815D
:103DD000938120E03FEF4FE757E40E94B03B181675
:103DE0000CF044C0FE01E95FFE4F60817181828169
:103DF000938120E030E040E251E40E940A3ADC0185
:103E0000CB018E010F5F1E4FBC01CD010E943438E3
:103E1000DC01CB01F801918380831FC0FE01E150DA
:103E2000FF4F80E791E091838083FE01E150FF4FD7
:103E3000808191810197F1F7FE01E150FF4F91835D
:103E40008083DE01AF5FBE4FFE01EF5FFE4F8081DA
:103E50009181019711969C938E93FE01EF5FFE4F27
:103E6000808191810097D1F60C94212C8E010F5FF7
:103E70001E4FFE01ED5FFE4F608171818281938153
:103E80000E943438DC01CB01F80191838083DE018C
:103E9000A350BF4FFE01EF5FFE4F808191811196CD
:103EA0009C938E93FE01E350FF4F80819181019797
:103EB000F1F7FE01E350FF4F918380830C94212C96
:103EC000FE01E757FE4F0190F081E02D808186349E
:103ED00009F099C78091000290910102813091050B
:103EE00041F080912603909127038130910509F0DC
:103EF00014C6FE01E757FE4F80819181FC01319687
:103F00008081813381F080910002909101020E94B2
:103F100051169093030280930202809102029091C5
:103F200003020E943213FE01E757FE4F8081918108
:103F3000FC0131968081863309F0C7C08FE090E0A4
:103F40000E94EB0E82E390E00E946D0E0E94382FDB
:103F500083E290E00E94800E0E949D0CFE01E750DB
:103F6000FF4F80E090E0A8ECB2E480839183A283CD
:103F7000B3838E010B501F4FFE01E750FF4F60814E
:103F800071818281938126E636E646E655E40E94F9
:103F90000A3ADC01CB01F80180839183A283B383C9
:103FA000FE01EB50FF4F608171818281938120E09F
:103FB00030E040E85FE30E94103C882344F4FE01B7
:103FC000ED50FF4F81E090E09183808365C0FE015A
:103FD000EB50FF4F608171818281938120E03FEF40
:103FE0004FE757E40E94B03B18160CF044C0FE01A6
:103FF000E750FF4F608171818281938120E030E042
:1040000040E251E40E940A3ADC01CB018E010D50DE
:104010001F4FBC01CD010E943438DC01CB01F801F7
:10402000918380831FC0FE01EF50FF4F80E791E036
:1040300091838083FE01EF50FF4F80819181019732
:10404000F1F7FE01EF50FF4F91838083DE01AD5009
:10405000BF4FFE01ED50FF4F808191810197119676
:104060009C938E93FE01ED50FF4F808191810097CC
:10407000D1F60C94212C8E010D501F4FFE01EB50F8
:10408000FF4F60817181828193810E943438DC010D
:10409000CB01F80191838083DE01A151BF4FFE0166
:1040A000ED50FF4F8081918111969C938E93FE017C
:1040B000E151FF4F808191810197F1F7FE01E151BC
:1040C000FF4F918380830C94212CFE01E757FE4F14
:1040D00080819181FC0131968081813309F0A7C3F1
:1040E00084E690E00E946D0E0E949D0CFE01E55159
:1040F000FF4F80E090E0A8E4B2E480839183A28344
:10410000B3838E0109511F4FFE01E551FF4F6081BE
:1041100071818281938126E636E646E655E40E9467
:104120000A3ADC01CB01F80180839183A283B38337
:10413000FE01E951FF4F608171818281938120E00E
:1041400030E040E85FE30E94103C882344F4FE0125
:10415000EB51FF4F81E090E09183808364C0FE01CA
:10416000E951FF4F608171818281938120E03FEFAF
:104170004FE757E40E94B03B18160CF043C0FE0115
:10418000E551FF4F608171818281938120E030E0B1
:1041900040E251E40E940A3ADC01CB018E010B514E
:1041A0001F4FBC01CD010E943438DC01CB01F80166
:1041B000918380831FC0FE01ED51FF4F80E791E0A6
:1041C00091838083FE01ED51FF4F808191810197A2
:1041D000F1F7FE01ED51FF4F91838083DE01AB517A
:1041E000BF4FFE01EB51FF4F8081918101971196E6
:1041F0009C938E93FE01EB51FF4F8081918100973C
:10420000D1F627C08E010B511F4FFE01E951FF4F20
:1042100060817181828193810E943438DC01CB01FD
:10422000F80191838083DE01AF51BF4FFE01EB5156
:10423000FF4F808191818D939C93FE01EF51FF4F41
:10424000808191810197F1F7FE01EF51FF4F91833A
:10425000808388E290E00E94EB0E0E949D0CFE019C
:10426000E352FF4F80E090E0A8E4B2E480839183C2
:10427000A283B3838E0107521F4FFE01E352FF4F0B
:10428000608171818281938126E636E646E655E4B7
:104290000E940A3ADC01CB01F80180839183A2835A
:1042A000B383FE01E752FF4F608171818281938168
:1042B00020E030E040E85FE30E94103C882344F4B3
:1042C000FE01E952FF4F81E090E09183808364C05A
:1042D000FE01E752FF4F608171818281938120E06E
:1042E0003FEF4FE757E40E94B03B18160CF043C075
:1042F000FE01E352FF4F608171818281938120E052
:1043000030E040E251E40E940A3ADC01CB018E0128
:1043100009521F4FBC01CD010E943438DC01CB0192
:10432000F801918380831FC0FE01EB52FF4F80E7AD
:1043300091E091838083FE01EB52FF4F8081918158
:104340000197F1F7FE01EB52FF4F91838083DE016D
:10435000A952BF4FFE01E952FF4F80819181019721
:1043600011969C938E93FE01E952FF4F80819181BB
:104370000097D1F627C08E0109521F4FFE01E75268
:10438000FF4F60817181828193810E943438DC010A
:10439000CB01F80191838083DE01AD52BF4FFE0156
:1043A000E952FF4F808191818D939C93FE01ED52E4
:1043B000FF4F808191810197F1F7FE01ED52FF4F90
:1043C000918380838EE190E00E946D0E0E94382FD1
:1043D0008EE190E00E94800E0E949D0CFE01E15350
:1043E000FF4F80E090E0A8ECB2E480839183A28349
:1043F000B3838E0105531F4FFE01E153FF4F6081D0
:1044000071818281938126E636E646E655E40E9474
:104410000A3ADC01CB01F80180839183A283B38344
:10442000FE01E553FF4F608171818281938120E01D
:1044300030E040E85FE30E94103C882344F4FE0132
:10444000E753FF4F81E090E09183808364C0FE01D9
:10445000E553FF4F608171818281938120E03FEFBE
:104460004FE757E40E94B03B18160CF043C0FE0122
:10447000E153FF4F608171818281938120E030E0C0
:1044800040E251E40E940A3ADC01CB018E0107535D
:104490001F4FBC01CD010E943438DC01CB01F80173
:1044A000918380831FC0FE01E953FF4F80E791E0B5
:1044B00091838083FE01E953FF4F808191810197B1
:1044C000F1F7FE01E953FF4F91838083DE01A7538B
:1044D000BF4FFE01E753FF4F8081918101971196F5
:1044E0009C938E93FE01E753FF4F8081918100974B
:1044F000D1F627C08E0107531F4FFE01E553FF4F32
:1045000060817181828193810E943438DC01CB010A
:10451000F80191838083DE01AB53BF4FFE01E75367
:10452000FF4F808191818D939C93FE01EB53FF4F50
:10453000808191810197F1F7FE01EB53FF4F918349
:1045400080838DE290E00E94D20E0E949D0CFE01BD
:10455000EF53FF4F80E090E0A8E4B2E480839183C2
:10456000A283B3838E0103541F4FFE01EF53FF4F0D
:10457000608171818281938126E636E646E655E4C4
:104580000E940A3ADC01CB01F80180839183A28367
:10459000B383FE01E354FF4F608171818281938177
:1045A00020E030E040E85FE30E94103C882344F4C0
:1045B000FE01E554FF4F81E090E09183808364C069
:1045C000FE01E354FF4F608171818281938120E07D
:1045D0003FEF4FE757E40E94B03B18160CF043C082
:1045E000FE01EF53FF4F608171818281938120E052
:1045F00030E040E251E40E940A3ADC01CB018E0136
:1046000005541F4FBC01CD010E943438DC01CB01A1
:10461000F801918380831FC0FE01E754FF4F80E7BC
:1046200091E091838083FE01E754FF4F8081918167
:104630000197F1F7FE01E754FF4F91838083DE017C
:10464000A554BF4FFE01E554FF4F80819181019732
:1046500011969C938E93FE01E554FF4F80819181CA
:104660000097D1F627C08E0105541F4FFE01E35479
:10467000FF4F60817181828193810E943438DC0117
:10468000CB01F80191838083DE01A954BF4FFE0165
:10469000E554FF4F808191818D939C93FE01E954F5
:1046A000FF4F808191810197F1F7FE01E954FF4F9F
:1046B000918380838DE790E00E94800E0E949D0C84
:1046C000FE01ED54FF4F80E090E0A8E4B2E4808367
:1046D0009183A283B3838E0101551F4FFE01ED54D8
:1046E000FF4F608171818281938126E636E646E63E
:1046F00055E40E940A3ADC01CB01F80180839183E2
:10470000A283B383FE01E155FF4F608171818281F5
:10471000938120E030E040E85FE30E94103C882372
:1047200044F4FE01E355FF4F81E090E091838083E4
:1047300065C0FE01E155FF4F6081718182819381E7
:1047400020E03FEF4FE757E40E94B03B18160CF013
:1047500044C0FE01ED54FF4F6081718182819381DD
:1047600020E030E040E251E40E940A3ADC01CB0153
:104770008E0103551F4FBC01CD010E943438DC016E
:10478000CB01F801918380831FC0FE01E555FF4FE7
:1047900080E791E091838083FE01E555FF4F8081A2
:1047A00091810197F1F7FE01E555FF4F91838083D9
:1047B000DE01A355BF4FFE01E355FF4F808191817C
:1047C000019711969C938E93FE01E355FF4F8081D4
:1047D00091810097D1F60C94212C8E0103551F4F27
:1047E000FE01E155FF4F60817181828193810E94BA
:1047F0003438DC01CB01F80191838083DE01A755B9
:10480000BF4FFE01E355FF4F8081918111969C932C
:104810008E93FE01E755FF4F808191810197F1F75B
:10482000FE01E755FF4F918380830C94212C89E191
:1048300090E00E946D0E0E949D0CFE01EB55FF4F13
:1048400080E090E0A8E4B2E480839183A283B38304
:104850008E010F551F4FFE01EB55FF4F6081718197
:104860008281938126E636E646E655E40E940A3ABE
:10487000DC01CB01F80180839183A283B383FE0125
:10488000EF55FF4F608171818281938120E030E09C
:1048900040E85FE30E94103C882344F4FE01E156A7
:1048A000FF4F81E090E09183808364C0FE01EF556B
:1048B000FF4F608171818281938120E03FEF4FE75C
:1048C00057E40E94B03B18160CF043C0FE01EB55B4
:1048D000FF4F608171818281938120E030E040E26E
:1048E00051E40E940A3ADC01CB018E0101561F4FB0
:1048F000BC01CD010E943438DC01CB01F801918369
:1049000080831FC0FE01E356FF4F80E791E0918353
:104910008083FE01E356FF4F808191810197F1F77B
:10492000FE01E356FF4F91838083DE01A156BF4F06
:10493000FE01E156FF4F80819181019711969C9372
:104940008E93FE01E156FF4F808191810097D1F651
:1049500027C08E0101561F4FFE01EF55FF4F6081AA
:104960007181828193810E943438DC01CB01F8018E
:1049700091838083DE01A556BF4FFE01E156FF4FB4
:10498000808191818D939C93FE01E556FF4F80813C
:1049900091810197F1F7FE01E556FF4F91838083E6
:1049A0000E94382F85E590E00E94800E0E949D0CA9
:1049B000FE01E956FF4F80E090E0A8E4B2E4808376
:1049C0009183A283B3838E010D561F4FFE01E956DA
:1049D000FF4F608171818281938126E636E646E64B
:1049E00055E40E940A3ADC01CB01F80180839183EF
:1049F000A283B383FE01ED56FF4F608171818281F6
:104A0000938120E030E040E85FE30E94103C88237F
:104A100044F4FE01EF56FF4F81E090E091838083E4
:104A200064C0FE01ED56FF4F6081718182819381E8
:104A300020E03FEF4FE757E40E94B03B18160CF020
:104A400043C0FE01E956FF4F6081718182819381ED
:104A500020E030E040E251E40E940A3ADC01CB0160
:104A60008E010F561F4FBC01CD010E943438DC016E
:104A7000CB01F801918380831FC0FE01E157FF4FF6
:104A800080E791E091838083FE01E157FF4F8081B1
:104A900091810197F1F7FE01E157FF4F91838083E8
:104AA000DE01AF56BF4FFE01EF56FF4F808191816F
:104AB000019711969C938E93FE01EF56FF4F8081D4
:104AC00091810097D1F6BDC68E010F561F4FFE0192
:104AD000ED56FF4F60817181828193810E9434384D
:104AE000DC01CB01F80191838083DE01A357BF4F26
:104AF000FE01EF56FF4F8081918111969C938E931A
:104B0000FE01E357FF4F808191810197F1F7FE018C
:104B1000E357FF4F9183808394C682E390E00E9425
:104B20006D0E0E949D0CFE01E757FF4F80E090E064
:104B3000A8E4B2E480839183A283B3838E010B57F0
:104B40001F4FFE01E757FF4F608171818281938182
:104B500026E636E646E655E40E940A3ADC01CB0139
:104B6000F80180839183A283B383FE01EB57FF4F4B
:104B7000608171818281938120E030E040E85FE3D1
:104B80000E94103C882344F4FE01ED57FF4F81E062
:104B900090E09183808364C0FE01EB57FF4F6081FA
:104BA00071818281938120E03FEF4FE757E40E94BB
:104BB000B03B18160CF043C0FE01E757FF4F608171
:104BC00071818281938120E030E040E251E40E94D3
:104BD0000A3ADC01CB018E010D571F4FBC01CD01FC
:104BE0000E943438DC01CB01F801918380831FC01F
:104BF000FE01EF57FF4F80E791E091838083FE0134
:104C0000EF57FF4F808191810197F1F7FE01EF5738
:104C1000FF4F91838083DE01AD57BF4FFE01ED57FB
:104C2000FF4F80819181019711969C938E93FE0195
:104C3000ED57FF4F808191810097D1F627C08E01FB
:104C40000D571F4FFE01EB57FF4F6081718182812D
:104C500093810E943438DC01CB01F8019183808379
:104C6000DE01A158BF4FFE01ED57FF4F80819181BA
:104C70008D939C93FE01E158FF4F808191810197B4
:104C8000F1F7FE01E158FF4F918380830E94382F96
:104C900087E390E00E94800E0E949D0CFE01E55883
:104CA000FF4F80E090E0A8E4B2E480839183A28388
:104CB000B3838E0109581F4FFE01E558FF4F6081F5
:104CC00071818281938126E636E646E655E40E94AC
:104CD0000A3ADC01CB01F80180839183A283B3837C
:104CE000FE01E958FF4F608171818281938120E04C
:104CF00030E040E85FE30E94103C882344F4FE016A
:104D0000EB58FF4F81E090E09183808364C0FE0107
:104D1000E958FF4F608171818281938120E03FEFEC
:104D20004FE757E40E94B03B18160CF043C0FE0159
:104D3000E558FF4F608171818281938120E030E0EE
:104D400040E251E40E940A3ADC01CB018E010B588B
:104D50001F4FBC01CD010E943438DC01CB01F801AA
:104D6000918380831FC0FE01ED58FF4F80E791E0E3
:104D700091838083FE01ED58FF4F808191810197DF
:104D8000F1F7FE01ED58FF4F91838083DE01AB58B0
:104D9000BF4FFE01EB58FF4F808191810197119623
:104DA0009C938E93FE01EB58FF4F80819181009779
:104DB000D1F647C58E010B581F4FFE01E958FF4F32
:104DC00060817181828193810E943438DC01CB0142
:104DD000F80191838083DE01AF58BF4FFE01EB588D
:104DE000FF4F8081918111969C938E93FE01EF5825
:104DF000FF4F808191810197F1F7FE01EF58FF4F3E
:104E0000918380831EC5FE01E757FE4F808191810B
:104E1000FC0131968081813309F0F0C2FE01E75731
:104E2000FE4F0190F081E02D8081813409F4E6C2CB
:104E3000FE01E757FE4F0190F081E02D808186341E
:104E400009F4DCC2809128039091290381309105F7
:104E500041F080912A0390912B038130910509F054
:104E600086C180912803909129030E945116909346
:104E700003028093020280910202909103020E9439
:104E8000321389E190E00E946D0E0E949D0CFE019C
:104E9000E359FF4F80E090E0A8E4B2E4808391837F
:104EA000A283B3838E0107591F4FFE01E359FF4FC1
:104EB000608171818281938126E636E646E655E47B
:104EC0000E940A3ADC01CB01F80180839183A2831E
:104ED000B383FE01E759FF4F608171818281938125
:104EE00020E030E040E85FE30E94103C882344F477
:104EF000FE01E959FF4F81E090E09183808364C017
:104F0000FE01E759FF4F608171818281938120E02A
:104F10003FEF4FE757E40E94B03B18160CF043C038
:104F2000FE01E359FF4F608171818281938120E00E
:104F300030E040E251E40E940A3ADC01CB018E01EC
:104F400009591F4FBC01CD010E943438DC01CB014F
:104F5000F801918380831FC0FE01EB59FF4F80E76A
:104F600091E091838083FE01EB59FF4F8081918115
:104F70000197F1F7FE01EB59FF4F91838083DE012A
:104F8000A959BF4FFE01E959FF4F808191810197D7
:104F900011969C938E93FE01E959FF4F8081918178
:104FA0000097D1F627C08E0109591F4FFE01E7591E
:104FB000FF4F60817181828193810E943438DC01CE
:104FC000CB01F80191838083DE01AD59BF4FFE0113
:104FD000E959FF4F808191818D939C93FE01ED599A
:104FE000FF4F808191810197F1F7FE01ED59FF4F4D
:104FF000918380830E94382F85E590E00E94800E87
:105000000E949D0CFE01E15AFF4F80E090E0A8E471
:10501000B2E480839183A283B3838E01055A1F4F2C
:10502000FE01E15AFF4F608171818281938126E602
:1050300036E646E655E40E940A3ADC01CB01F80167
:1050400080839183A283B383FE01E55AFF4F608181
:1050500071818281938120E030E040E85FE30E942B
:10506000103C882344F4FE01E75AFF4F81E090E0B2
:105070009183808364C0FE01E55AFF4F6081718196
:105080008281938120E03FEF4FE757E40E94B03BDD
:1050900018160CF043C0FE01E15AFF4F6081718188
:1050A0008281938120E030E040E251E40E940A3A9C
:1050B000DC01CB018E01075A1F4FBC01CD010E94BC
:1050C0003438DC01CB01F801918380831FC0FE01DD
:1050D000E95AFF4F80E791E091838083FE01E95A0E
:1050E000FF4F808191810197F1F7FE01E95AFF4F4F
:1050F00091838083DE01A75ABF4FFE01E75AFF4F1D
:1051000080819181019711969C938E93FE01E75ABD
:10511000FF4F808191810097D1F693C38E01075A8A
:105120001F4FFE01E55AFF4F60817181828193819B
:105130000E943438DC01CB01F80191838083DE01C9
:10514000AB5ABF4FFE01E75AFF4F80819181119604
:105150009C938E93FE01EB5AFF4F808191810197C2
:10516000F1F7FE01EB5AFF4F918380836AC382E31C
:1051700090E00E946D0E0E949D0CFE01EF5AFF4FC1
:1051800080E090E0A8E4B2E480839183A283B383BB
:105190008E01035B1F4FFE01EF5AFF4F608171814B
:1051A0008281938126E636E646E655E40E940A3A75
:1051B000DC01CB01F80180839183A283B383FE01DC
:1051C000E35BFF4F608171818281938120E030E059
:1051D00040E85FE30E94103C882344F4FE01E55B55
:1051E000FF4F81E090E09183808364C0FE01E35B28
:1051F000FF4F608171818281938120E03FEF4FE713
:1052000057E40E94B03B18160CF043C0FE01EF5A61
:10521000FF4F608171818281938120E030E040E224
:1052200051E40E940A3ADC01CB018E01055B1F4F5D
:10523000BC01CD010E943438DC01CB01F80191831F
:1052400080831FC0FE01E75BFF4F80E791E0918301
:105250008083FE01E75BFF4F808191810197F1F729
:10526000FE01E75BFF4F91838083DE01A55BBF4FAB
:10527000FE01E55BFF4F80819181019711969C9320
:105280008E93FE01E55BFF4F808191810097D1F6FF
:1052900027C08E01055B1F4FFE01E35BFF4F60815E
:1052A0007181828193810E943438DC01CB01F80145
:1052B00091838083DE01A95BBF4FFE01E55BFF4F59
:1052C000808191818D939C93FE01E95BFF4F8081EA
:1052D00091810197F1F7FE01E95BFF4F9183808394
:1052E0000E94382F8CE390E00E94800E0E949D0C5B
:1052F000FE01ED5BFF4F80E090E0A8E4B2E4808324
:105300009183A283B3838E01015C1F4FFE01ED5B8D
:10531000FF4F608171818281938126E636E646E601
:1053200055E40E940A3ADC01CB01F80180839183A5
:10533000A283B383FE01FF96608171818281938194
:1053400020E030E040E85FE30E94103C88232CF42A
:1053500081E090E09EAF8DAF46C0FE01FF96608178
:1053600071818281938120E03FEF4FE757E40E94F3
:10537000B03B181664F5FE01ED5BFF4F6081718153
:105380008281938120E030E040E251E40E940A3AB9
:10539000DC01CB01BC01CD010E943438DC01CB0122
:1053A0009EAF8DAF0FC080E791E09CAF8BAF8BAD10
:1053B0009CAD0197F1F79CAF8BAF8DAD9EAD019782
:1053C0009EAF8DAF8DAD9EAD009769F73AC2FE01DD
:1053D000FF9660817181828193810E943438DC0163
:1053E000CB019EAF8DAF8DAD9EAD9AAF89AF89AD2C
:1053F0009AAD0197F1F79AAF89AF23C2FE01E75743
:10540000FE4F80819181FC0131968081863309F0C5
:1054100018C2FE01E757FE4F0190F081E02D808118
:10542000813409F40EC2FE01E757FE4F0190F0816E
:10543000E02D8081863409F404C280912A03909182
:105440002B038130910541F080912803909129032D
:105450008130910509F003C180912A0390912B03BB
:105460000E945116909303028093020280910202DF
:10547000909103020E94321389E190E00E946D0E28
:105480000E949D0C80E090E0A8E4B2E48DAB9EAB5E
:10549000AFABB8AF6DA97EA98FA998AD26E636E669
:1054A00046E655E40E940A3ADC01CB0189AB9AAB8F
:1054B000ABABBCAB69A97AA98BA99CA920E030E071
:1054C00040E85FE30E94103C88232CF481E090E0E8
:1054D00098AB8FA73FC069A97AA98BA99CA920E0A6
:1054E0003FEF4FE757E40E94B03B18164CF56DA90B
:1054F0007EA98FA998AD20E030E040E251E40E94FF
:105500000A3ADC01CB01BC01CD010E943438DC0138
:10551000CB0198AB8FA70FC080E791E09EA78DA726
:105520008DA59EA50197F1F79EA78DA78FA598A998
:10553000019798AB8FA78FA598A9009769F714C01A
:1055400069A97AA98BA99CA90E943438DC01CB01F6
:1055500098AB8FA78FA598A99CA78BA78BA59CA577
:105560000197F1F79CA78BA70E94382F85E590E063
:105570000E94800E0E949D0C80E090E0A8E4B2E4BE
:105580008FA398A7A9A7BAA76FA178A589A59AA55F
:1055900026E636E646E655E40E940A3ADC01CB01EF
:1055A0008BA39CA3ADA3BEA36BA17CA18DA19EA147
:1055B00020E030E040E85FE30E94103C88232CF4B8
:1055C00081E090E09AA389A33FC06BA17CA18DA14B
:1055D0009EA120E03FEF4FE757E40E94B03B181632
:1055E0004CF56FA178A589A59AA520E030E040E2AE
:1055F00051E40E940A3ADC01CB01BC01CD010E94BA
:105600003438DC01CB019AA389A30FC080E791E075
:1056100098A38F8F8F8D98A10197F1F798A38F8F03
:1056200089A19AA101979AA389A389A19AA1009718
:1056300069F707C16BA17CA18DA19EA10E9434389E
:10564000DC01CB019AA389A389A19AA19E8F8D8F9A
:105650008D8D9E8D0197F1F79E8F8D8FF2C082E325
:1056600090E00E946D0E0E949D0C80E090E0A8E406
:10567000B2E4898F9A8FAB8FBC8F698D7A8D8B8DB9
:105680009C8D26E636E646E655E40E940A3ADC01A1
:10569000CB018D8B9E8BAF8BB88F6D897E898F8967
:1056A000988D20E030E040E85FE30E94103C8823C2
:1056B0002CF481E090E09C8B8B8B3FC06D897E89C0
:1056C0008F89988D20E03FEF4FE757E40E94B03B71
:1056D00018164CF5698D7A8D8B8D9C8D20E030E00D
:1056E00040E251E40E940A3ADC01CB01BC01CD0149
:1056F0000E943438DC01CB019C8B8B8B0FC080E780
:1057000091E09A8B898B89899A890197F1F79A8B15
:10571000898B8B899C8901979C8B8B8B8B899C892E
:10572000009769F714C06D897E898F89988D0E94D2
:105730003438DC01CB019C8B8B8B8B899C89988BBB
:105740008F878F8598890197F1F7988B8F870E94B3
:10575000382F87E390E00E94800E0E949D0C80E02D
:1057600090E0A8E4B2E48B879C87AD87BE876B8509
:105770007C858D859E8526E636E646E655E40E94C4
:105780000A3ADC01CB018F839887A987BA876F819A
:10579000788589859A8520E030E040E85FE30E94C3
:1057A000103C88232CF481E090E09E838D833FC0E1
:1057B0006F81788589859A8520E03FEF4FE757E430
:1057C0000E94B03B18164CF56B857C858D859E85B7
:1057D00020E030E040E251E40E940A3ADC01CB01D3
:1057E000BC01CD010E943438DC01CB019E838D8346
:1057F0000FC080E791E09C838B838B819C81019714
:10580000F1F79C838B838D819E8101979E838D838D
:105810008D819E81009769F714C06F817885898595
:105820009A850E943438DC01CB019E838D838D8163
:105830009E819A83898389819A810197F1F79A835E
:105840008983C657DE4F0FB6F894DEBF0FBECDBFBB
:10585000CF91DF911F910F910895DF93CF93CDB733
:10586000DEB7EA970FB6F894DEBF0FBECDBF9AAF92
:1058700089AF0E942A0F89AD9AAD8130910529F434
:105880008CE390E00E94A60E04C084E390E00E94A6
:10589000930E0E949D0C80E090E0A8ECB2E48DABEA
:1058A0009EABAFABB8AF6DA97EA98FA998AD26E628
:1058B00036E646E655E40E940A3ADC01CB0189ABA4
:1058C0009AABABABBCAB69A97AA98BA99CA920E028
:1058D00030E040E85FE30E94103C88232CF481E034
:1058E00090E098AB8FA73FC069A97AA98BA99CA922
:1058F00020E03FEF4FE757E40E94B03B18164CF50D
:105900006DA97EA98FA998AD20E030E040E251E476
:105910000E940A3ADC01CB01BC01CD010E9434385F
:10592000DC01CB0198AB8FA70FC080E791E09EA769
:105930008DA78DA59EA50197F1F79EA78DA78FA591
:1059400098A9019798AB8FA78FA598A9009769F799
:1059500014C069A97AA98BA99CA90E943438DC01DA
:10596000CB0198AB8FA78FA598A99CA78BA78BA5D8
:105970009CA50197F1F79CA78BA780912603909196
:1059800027038130910529F487E390E00E946D0E92
:1059900004C08CE390E00E946D0E0E942A31809139
:1059A0002603909127038130910529F48CE390E040
:1059B0000E94800E04C086E490E00E94800E0E9447
:1059C0009D0C80E090E0A2EDB2E48FA398A7A9A778
:1059D000BAA76FA178A589A59AA526E636E646E678
:1059E00055E40E940A3ADC01CB018BA39CA3ADA332
:1059F000BEA36BA17CA18DA19EA120E030E040E878
:105A00005FE30E94103C88232CF481E090E09AA38D
:105A100089A33FC06BA17CA18DA19EA120E03FEF97
:105A20004FE757E40E94B03B18164CF56FA178A5DC
:105A300089A59AA520E030E040E251E40E940A3AAC
:105A4000DC01CB01BC01CD010E943438DC01CB016B
:105A50009AA389A30FC080E791E098A38F8F8F8DC1
:105A600098A10197F1F798A38F8F89A19AA1019727
:105A70009AA389A389A19AA1009769F714C06BA181
:105A80007CA18DA19EA10E943438DC01CB019AA398
:105A900089A389A19AA19E8F8D8F8D8D9E8D01974F
:105AA000F1F79E8F8D8F89AD9AAD8130910529F4E4
:105AB00083E290E00E94930E04C085E290E00E9491
:105AC000A60E0E949D0C80E090E0A8E4B2E4898FCD
:105AD0009A8FAB8FBC8F698D7A8D8B8D9C8D26E6CE
